{
  "contractName": "DeliveryContract",
  "abi": [
    {
      "anonymous": false,
      "inputs": [
        {
          "indexed": false,
          "internalType": "uint256",
          "name": "orderId",
          "type": "uint256"
        },
        {
          "indexed": false,
          "internalType": "enum DeliveryContract.ConfirmationState",
          "name": "state",
          "type": "uint8"
        }
      ],
      "name": "ConfirmaionStateChanged",
      "type": "event"
    },
    {
      "inputs": [
        {
          "internalType": "uint256",
          "name": "",
          "type": "uint256"
        }
      ],
      "name": "store",
      "outputs": [
        {
          "internalType": "address",
          "name": "shippingCondignor",
          "type": "address"
        },
        {
          "internalType": "address",
          "name": "shippingRecipient",
          "type": "address"
        },
        {
          "internalType": "address",
          "name": "deliveringCondignor",
          "type": "address"
        },
        {
          "internalType": "address",
          "name": "deliveringRecipient",
          "type": "address"
        },
        {
          "internalType": "address",
          "name": "returningCondignor",
          "type": "address"
        },
        {
          "internalType": "address",
          "name": "returningRecipient",
          "type": "address"
        },
        {
          "internalType": "address",
          "name": "recievingCondignor",
          "type": "address"
        },
        {
          "internalType": "address",
          "name": "recievingRecipient",
          "type": "address"
        },
        {
          "internalType": "enum DeliveryContract.ConfirmationState",
          "name": "state",
          "type": "uint8"
        },
        {
          "internalType": "bool",
          "name": "exists",
          "type": "bool"
        }
      ],
      "stateMutability": "view",
      "type": "function",
      "constant": true
    },
    {
      "inputs": [
        {
          "internalType": "uint256",
          "name": "_orderId",
          "type": "uint256"
        }
      ],
      "name": "confirmShipment",
      "outputs": [],
      "stateMutability": "nonpayable",
      "type": "function"
    },
    {
      "inputs": [
        {
          "internalType": "uint256",
          "name": "_orderId",
          "type": "uint256"
        }
      ],
      "name": "confirmReceivment",
      "outputs": [],
      "stateMutability": "nonpayable",
      "type": "function"
    },
    {
      "inputs": [
        {
          "internalType": "uint256",
          "name": "_orderId",
          "type": "uint256"
        },
        {
          "internalType": "address",
          "name": "consigor",
          "type": "address"
        },
        {
          "internalType": "address",
          "name": "recipient",
          "type": "address"
        }
      ],
      "name": "isConfirmed",
      "outputs": [
        {
          "internalType": "bool",
          "name": "eval",
          "type": "bool"
        }
      ],
      "stateMutability": "view",
      "type": "function",
      "constant": true
    }
  ],
  "bytecode": "0x608060405234801561001057600080fd5b50611ed2806100206000396000f3fe608060405234801561001057600080fd5b506004361061004c5760003560e01c806355f9d66e146100515780636057361d14610081578063e0cb8e5f146100ba578063f5a2e37e146100d6575b600080fd5b61006b60048036038101906100669190611c53565b6100f2565b6040516100789190611d7a565b60405180910390f35b61009b60048036038101906100969190611c2a565b610301565b6040516100b19a99989796959493929190611cde565b60405180910390f35b6100d460048036038101906100cf9190611c2a565b61046f565b005b6100f060048036038101906100eb9190611c2a565b61085a565b005b6000806100fe85610c45565b90508373ffffffffffffffffffffffffffffffffffffffff16816000015173ffffffffffffffffffffffffffffffffffffffff1614801561016e57508273ffffffffffffffffffffffffffffffffffffffff16816020015173ffffffffffffffffffffffffffffffffffffffff16145b1561017d5760019150506102fa565b8373ffffffffffffffffffffffffffffffffffffffff16816040015173ffffffffffffffffffffffffffffffffffffffff161480156101eb57508273ffffffffffffffffffffffffffffffffffffffff16816060015173ffffffffffffffffffffffffffffffffffffffff16145b156101fa5760019150506102fa565b8373ffffffffffffffffffffffffffffffffffffffff16816080015173ffffffffffffffffffffffffffffffffffffffff1614801561026857508273ffffffffffffffffffffffffffffffffffffffff168160a0015173ffffffffffffffffffffffffffffffffffffffff16145b156102775760019150506102fa565b8373ffffffffffffffffffffffffffffffffffffffff168160c0015173ffffffffffffffffffffffffffffffffffffffff161480156102e557508273ffffffffffffffffffffffffffffffffffffffff168160e0015173ffffffffffffffffffffffffffffffffffffffff16145b156102f45760019150506102fa565b60009150505b9392505050565b60006020528060005260406000206000915090508060000160009054906101000a900473ffffffffffffffffffffffffffffffffffffffff16908060010160009054906101000a900473ffffffffffffffffffffffffffffffffffffffff16908060020160009054906101000a900473ffffffffffffffffffffffffffffffffffffffff16908060030160009054906101000a900473ffffffffffffffffffffffffffffffffffffffff16908060040160009054906101000a900473ffffffffffffffffffffffffffffffffffffffff16908060050160009054906101000a900473ffffffffffffffffffffffffffffffffffffffff16908060060160009054906101000a900473ffffffffffffffffffffffffffffffffffffffff16908060070160009054906101000a900473ffffffffffffffffffffffffffffffffffffffff16908060070160149054906101000a900460ff16908060070160159054906101000a900460ff1690508a565b600061047a82610c45565b9050600060048111156104b6577f4e487b7100000000000000000000000000000000000000000000000000000000600052602160045260246000fd5b81610100015160048111156104f4577f4e487b7100000000000000000000000000000000000000000000000000000000600052602160045260246000fd5b141561057057600073ffffffffffffffffffffffffffffffffffffffff16816000015173ffffffffffffffffffffffffffffffffffffffff161461053757600080fd5b33816000019073ffffffffffffffffffffffffffffffffffffffff16908173ffffffffffffffffffffffffffffffffffffffff16815250505b600160048111156105aa577f4e487b7100000000000000000000000000000000000000000000000000000000600052602160045260246000fd5b81610100015160048111156105e8577f4e487b7100000000000000000000000000000000000000000000000000000000600052602160045260246000fd5b141561066457600073ffffffffffffffffffffffffffffffffffffffff16816040015173ffffffffffffffffffffffffffffffffffffffff161461062b57600080fd5b33816040019073ffffffffffffffffffffffffffffffffffffffff16908173ffffffffffffffffffffffffffffffffffffffff16815250505b6002600481111561069e577f4e487b7100000000000000000000000000000000000000000000000000000000600052602160045260246000fd5b81610100015160048111156106dc577f4e487b7100000000000000000000000000000000000000000000000000000000600052602160045260246000fd5b141561075857600073ffffffffffffffffffffffffffffffffffffffff16816080015173ffffffffffffffffffffffffffffffffffffffff161461071f57600080fd5b33816080019073ffffffffffffffffffffffffffffffffffffffff16908173ffffffffffffffffffffffffffffffffffffffff16815250505b60036004811115610792577f4e487b7100000000000000000000000000000000000000000000000000000000600052602160045260246000fd5b81610100015160048111156107d0577f4e487b7100000000000000000000000000000000000000000000000000000000600052602160045260246000fd5b141561084c57600073ffffffffffffffffffffffffffffffffffffffff168160c0015173ffffffffffffffffffffffffffffffffffffffff161461081357600080fd5b338160c0019073ffffffffffffffffffffffffffffffffffffffff16908173ffffffffffffffffffffffffffffffffffffffff16815250505b610856828261112e565b5050565b600061086582610c45565b9050600060048111156108a1577f4e487b7100000000000000000000000000000000000000000000000000000000600052602160045260246000fd5b81610100015160048111156108df577f4e487b7100000000000000000000000000000000000000000000000000000000600052602160045260246000fd5b141561095b57600073ffffffffffffffffffffffffffffffffffffffff16816020015173ffffffffffffffffffffffffffffffffffffffff161461092257600080fd5b33816020019073ffffffffffffffffffffffffffffffffffffffff16908173ffffffffffffffffffffffffffffffffffffffff16815250505b60016004811115610995577f4e487b7100000000000000000000000000000000000000000000000000000000600052602160045260246000fd5b81610100015160048111156109d3577f4e487b7100000000000000000000000000000000000000000000000000000000600052602160045260246000fd5b1415610a4f57600073ffffffffffffffffffffffffffffffffffffffff16816060015173ffffffffffffffffffffffffffffffffffffffff1614610a1657600080fd5b33816060019073ffffffffffffffffffffffffffffffffffffffff16908173ffffffffffffffffffffffffffffffffffffffff16815250505b60026004811115610a89577f4e487b7100000000000000000000000000000000000000000000000000000000600052602160045260246000fd5b8161010001516004811115610ac7577f4e487b7100000000000000000000000000000000000000000000000000000000600052602160045260246000fd5b1415610b4357600073ffffffffffffffffffffffffffffffffffffffff168160a0015173ffffffffffffffffffffffffffffffffffffffff1614610b0a57600080fd5b338160a0019073ffffffffffffffffffffffffffffffffffffffff16908173ffffffffffffffffffffffffffffffffffffffff16815250505b60036004811115610b7d577f4e487b7100000000000000000000000000000000000000000000000000000000600052602160045260246000fd5b8161010001516004811115610bbb577f4e487b7100000000000000000000000000000000000000000000000000000000600052602160045260246000fd5b1415610c3757600073ffffffffffffffffffffffffffffffffffffffff168160e0015173ffffffffffffffffffffffffffffffffffffffff1614610bfe57600080fd5b338160e0019073ffffffffffffffffffffffffffffffffffffffff16908173ffffffffffffffffffffffffffffffffffffffff16815250505b610c41828261112e565b5050565b610c4d611ac3565b60008083815260200190815260200160002060070160159054906101000a900460ff1615610fec57600080838152602001908152602001600020604051806101400160405290816000820160009054906101000a900473ffffffffffffffffffffffffffffffffffffffff1673ffffffffffffffffffffffffffffffffffffffff1673ffffffffffffffffffffffffffffffffffffffff1681526020016001820160009054906101000a900473ffffffffffffffffffffffffffffffffffffffff1673ffffffffffffffffffffffffffffffffffffffff1673ffffffffffffffffffffffffffffffffffffffff1681526020016002820160009054906101000a900473ffffffffffffffffffffffffffffffffffffffff1673ffffffffffffffffffffffffffffffffffffffff1673ffffffffffffffffffffffffffffffffffffffff1681526020016003820160009054906101000a900473ffffffffffffffffffffffffffffffffffffffff1673ffffffffffffffffffffffffffffffffffffffff1673ffffffffffffffffffffffffffffffffffffffff1681526020016004820160009054906101000a900473ffffffffffffffffffffffffffffffffffffffff1673ffffffffffffffffffffffffffffffffffffffff1673ffffffffffffffffffffffffffffffffffffffff1681526020016005820160009054906101000a900473ffffffffffffffffffffffffffffffffffffffff1673ffffffffffffffffffffffffffffffffffffffff1673ffffffffffffffffffffffffffffffffffffffff1681526020016006820160009054906101000a900473ffffffffffffffffffffffffffffffffffffffff1673ffffffffffffffffffffffffffffffffffffffff1673ffffffffffffffffffffffffffffffffffffffff1681526020016007820160009054906101000a900473ffffffffffffffffffffffffffffffffffffffff1673ffffffffffffffffffffffffffffffffffffffff1673ffffffffffffffffffffffffffffffffffffffff1681526020016007820160149054906101000a900460ff166004811115610f8e577f4e487b7100000000000000000000000000000000000000000000000000000000600052602160045260246000fd5b6004811115610fc6577f4e487b7100000000000000000000000000000000000000000000000000000000600052602160045260246000fd5b81526020016007820160159054906101000a900460ff1615151515815250509050611129565b604051806101400160405280600073ffffffffffffffffffffffffffffffffffffffff168152602001600073ffffffffffffffffffffffffffffffffffffffff168152602001600073ffffffffffffffffffffffffffffffffffffffff168152602001600073ffffffffffffffffffffffffffffffffffffffff168152602001600073ffffffffffffffffffffffffffffffffffffffff168152602001600073ffffffffffffffffffffffffffffffffffffffff168152602001600073ffffffffffffffffffffffffffffffffffffffff168152602001600073ffffffffffffffffffffffffffffffffffffffff1681526020016000600481111561111a577f4e487b7100000000000000000000000000000000000000000000000000000000600052602160045260246000fd5b81526020016001151581525090505b919050565b60006004811115611168577f4e487b7100000000000000000000000000000000000000000000000000000000600052602160045260246000fd5b81610100015160048111156111a6577f4e487b7100000000000000000000000000000000000000000000000000000000600052602160045260246000fd5b14156112e157600073ffffffffffffffffffffffffffffffffffffffff16816020015173ffffffffffffffffffffffffffffffffffffffff161415801561121e5750600073ffffffffffffffffffffffffffffffffffffffff16816000015173ffffffffffffffffffffffffffffffffffffffff1614155b156112dc5760018161010001906004811115611263577f4e487b7100000000000000000000000000000000000000000000000000000000600052602160045260246000fd5b9081600481111561129d577f4e487b7100000000000000000000000000000000000000000000000000000000600052602160045260246000fd5b815250507f39e881c3c8d8616a39634f9b0bca69a9e560fb318c56a7bd786cb803f7051ce88260016040516112d3929190611d95565b60405180910390a15b6117f9565b6001600481111561131b577f4e487b7100000000000000000000000000000000000000000000000000000000600052602160045260246000fd5b8161010001516004811115611359577f4e487b7100000000000000000000000000000000000000000000000000000000600052602160045260246000fd5b141561149457600073ffffffffffffffffffffffffffffffffffffffff16816060015173ffffffffffffffffffffffffffffffffffffffff16141580156113d15750600073ffffffffffffffffffffffffffffffffffffffff16816040015173ffffffffffffffffffffffffffffffffffffffff1614155b1561148f5760028161010001906004811115611416577f4e487b7100000000000000000000000000000000000000000000000000000000600052602160045260246000fd5b90816004811115611450577f4e487b7100000000000000000000000000000000000000000000000000000000600052602160045260246000fd5b815250507f39e881c3c8d8616a39634f9b0bca69a9e560fb318c56a7bd786cb803f7051ce8826002604051611486929190611d95565b60405180910390a15b6117f8565b600260048111156114ce577f4e487b7100000000000000000000000000000000000000000000000000000000600052602160045260246000fd5b816101000151600481111561150c577f4e487b7100000000000000000000000000000000000000000000000000000000600052602160045260246000fd5b141561164757600073ffffffffffffffffffffffffffffffffffffffff168160a0015173ffffffffffffffffffffffffffffffffffffffff16141580156115845750600073ffffffffffffffffffffffffffffffffffffffff16816080015173ffffffffffffffffffffffffffffffffffffffff1614155b1561164257600381610100019060048111156115c9577f4e487b7100000000000000000000000000000000000000000000000000000000600052602160045260246000fd5b90816004811115611603577f4e487b7100000000000000000000000000000000000000000000000000000000600052602160045260246000fd5b815250507f39e881c3c8d8616a39634f9b0bca69a9e560fb318c56a7bd786cb803f7051ce8826003604051611639929190611d95565b60405180910390a15b6117f7565b60036004811115611681577f4e487b7100000000000000000000000000000000000000000000000000000000600052602160045260246000fd5b81610100015160048111156116bf577f4e487b7100000000000000000000000000000000000000000000000000000000600052602160045260246000fd5b14156117f657600073ffffffffffffffffffffffffffffffffffffffff168160e0015173ffffffffffffffffffffffffffffffffffffffff16141580156117375750600073ffffffffffffffffffffffffffffffffffffffff168160c0015173ffffffffffffffffffffffffffffffffffffffff1614155b156117f5576004816101000190600481111561177c577f4e487b7100000000000000000000000000000000000000000000000000000000600052602160045260246000fd5b908160048111156117b6577f4e487b7100000000000000000000000000000000000000000000000000000000600052602160045260246000fd5b815250507f39e881c3c8d8616a39634f9b0bca69a9e560fb318c56a7bd786cb803f7051ce88260046040516117ec929190611d95565b60405180910390a15b5b5b5b5b8060008084815260200190815260200160002060008201518160000160006101000a81548173ffffffffffffffffffffffffffffffffffffffff021916908373ffffffffffffffffffffffffffffffffffffffff16021790555060208201518160010160006101000a81548173ffffffffffffffffffffffffffffffffffffffff021916908373ffffffffffffffffffffffffffffffffffffffff16021790555060408201518160020160006101000a81548173ffffffffffffffffffffffffffffffffffffffff021916908373ffffffffffffffffffffffffffffffffffffffff16021790555060608201518160030160006101000a81548173ffffffffffffffffffffffffffffffffffffffff021916908373ffffffffffffffffffffffffffffffffffffffff16021790555060808201518160040160006101000a81548173ffffffffffffffffffffffffffffffffffffffff021916908373ffffffffffffffffffffffffffffffffffffffff16021790555060a08201518160050160006101000a81548173ffffffffffffffffffffffffffffffffffffffff021916908373ffffffffffffffffffffffffffffffffffffffff16021790555060c08201518160060160006101000a81548173ffffffffffffffffffffffffffffffffffffffff021916908373ffffffffffffffffffffffffffffffffffffffff16021790555060e08201518160070160006101000a81548173ffffffffffffffffffffffffffffffffffffffff021916908373ffffffffffffffffffffffffffffffffffffffff1602179055506101008201518160070160146101000a81548160ff02191690836004811115611a96577f4e487b7100000000000000000000000000000000000000000000000000000000600052602160045260246000fd5b02179055506101208201518160070160156101000a81548160ff0219169083151502179055509050505050565b604051806101400160405280600073ffffffffffffffffffffffffffffffffffffffff168152602001600073ffffffffffffffffffffffffffffffffffffffff168152602001600073ffffffffffffffffffffffffffffffffffffffff168152602001600073ffffffffffffffffffffffffffffffffffffffff168152602001600073ffffffffffffffffffffffffffffffffffffffff168152602001600073ffffffffffffffffffffffffffffffffffffffff168152602001600073ffffffffffffffffffffffffffffffffffffffff168152602001600073ffffffffffffffffffffffffffffffffffffffff16815260200160006004811115611bf1577f4e487b7100000000000000000000000000000000000000000000000000000000600052602160045260246000fd5b81526020016000151581525090565b600081359050611c0f81611e6e565b92915050565b600081359050611c2481611e85565b92915050565b600060208284031215611c3c57600080fd5b6000611c4a84828501611c15565b91505092915050565b600080600060608486031215611c6857600080fd5b6000611c7686828701611c15565b9350506020611c8786828701611c00565b9250506040611c9886828701611c00565b9150509250925092565b611cab81611dbe565b82525050565b611cba81611dd0565b82525050565b611cc981611e19565b82525050565b611cd881611e0f565b82525050565b600061014082019050611cf4600083018d611ca2565b611d01602083018c611ca2565b611d0e604083018b611ca2565b611d1b606083018a611ca2565b611d286080830189611ca2565b611d3560a0830188611ca2565b611d4260c0830187611ca2565b611d4f60e0830186611ca2565b611d5d610100830185611cc0565b611d6b610120830184611cb1565b9b9a5050505050505050505050565b6000602082019050611d8f6000830184611cb1565b92915050565b6000604082019050611daa6000830185611ccf565b611db76020830184611cc0565b9392505050565b6000611dc982611def565b9050919050565b60008115159050919050565b6000819050611dea82611e5a565b919050565b600073ffffffffffffffffffffffffffffffffffffffff82169050919050565b6000819050919050565b6000611e2482611ddc565b9050919050565b7f4e487b7100000000000000000000000000000000000000000000000000000000600052602160045260246000fd5b60058110611e6b57611e6a611e2b565b5b50565b611e7781611dbe565b8114611e8257600080fd5b50565b611e8e81611e0f565b8114611e9957600080fd5b5056fea264697066735822122021ca594e6e1852c63c304f879c469f64ffa18f5af2982c4c2c1df08cb8ddae4b64736f6c63430008000033",
  "immutableReferences": {},
  "source": "pragma solidity ^0.8.0;\n\ncontract DeliveryContract {\n\n    mapping(uint => ConfirmationMechanism) public store;\n\n    // Custom confirmation mechanism\n    struct ConfirmationMechanism{\n        address shippingCondignor;\n        address shippingRecipient;\n\n        address deliveringCondignor;\n        address deliveringRecipient;\n\n        address returningCondignor;\n        address returningRecipient;\n\n        address recievingCondignor;\n        address recievingRecipient;\n\n        ConfirmationState state;\n\n        bool exists;  // workaround for existence\n    }\n\n    enum ConfirmationState{\n        SHIPPING, DELIVERING, RETURNING, RECEIVING, RECEIVED\n    }\n\n    event ConfirmaionStateChanged(\n        uint orderId,\n        ConfirmationState state\n    );\n\n    function getConfirmation(uint _orderId) private view returns (ConfirmationMechanism memory conf){\n        if ( store[_orderId].exists ) {\n            return store[_orderId];\n        }else{\n            return ConfirmationMechanism( address(0), address(0),\n                                          address(0), address(0),\n                                          address(0), address(0),\n                                          address(0), address(0),\n                                          ConfirmationState.SHIPPING, true);\n        }\n    }\n\n    function confirmShipment(uint _orderId) public {\n        ConfirmationMechanism memory conf = getConfirmation( _orderId );\n        if ( conf.state == ConfirmationState.SHIPPING ){\n            require( conf.shippingCondignor == address(0) );\n            conf.shippingCondignor = msg.sender;\n        }\n        if ( conf.state == ConfirmationState.DELIVERING ){\n            require( conf.deliveringCondignor == address(0) );\n            conf.deliveringCondignor = msg.sender;\n        }\n        if ( conf.state == ConfirmationState.RETURNING ){\n            require( conf.returningCondignor == address(0) );\n            conf.returningCondignor = msg.sender;\n        }\n        if ( conf.state == ConfirmationState.RECEIVING ){\n             require( conf.recievingCondignor == address(0) );\n             conf.recievingCondignor = msg.sender;\n        }\n        saveConf( _orderId , conf );\n    }\n\n    function confirmReceivment( uint _orderId ) public {\n        ConfirmationMechanism memory conf = getConfirmation( _orderId );\n        if ( conf.state == ConfirmationState.SHIPPING ){\n            require( conf.shippingRecipient == address(0) );\n            conf.shippingRecipient = msg.sender;\n        }\n        if ( conf.state == ConfirmationState.DELIVERING ){\n            require( conf.deliveringRecipient == address(0) );\n            conf.deliveringRecipient = msg.sender;\n        }\n        if ( conf.state == ConfirmationState.RETURNING ){\n            require( conf.returningRecipient == address(0) );\n            conf.returningRecipient = msg.sender;\n        }\n        if ( conf.state == ConfirmationState.RECEIVING ){\n            require( conf.recievingRecipient == address(0) );\n            conf.recievingRecipient = msg.sender;\n        }\n        saveConf( _orderId , conf );\n    }\n\n    function saveConf( uint _orderId, ConfirmationMechanism memory conf ) private {\n        if ( conf.state == ConfirmationState.SHIPPING ){\n            if ( conf.shippingRecipient != address(0) &&\n                conf.shippingCondignor != address(0) ){\n                conf.state = ConfirmationState.DELIVERING;\n                emit ConfirmaionStateChanged( _orderId ,ConfirmationState.DELIVERING );\n            }\n        } else if ( conf.state == ConfirmationState.DELIVERING ){\n            if ( conf.deliveringRecipient != address(0) &&\n                conf.deliveringCondignor != address(0) ){\n                conf.state = ConfirmationState.RETURNING;\n                emit ConfirmaionStateChanged( _orderId ,ConfirmationState.RETURNING );\n            }\n        } else if ( conf.state == ConfirmationState.RETURNING ){\n            if ( conf.returningRecipient != address(0) &&\n                conf.returningCondignor != address(0) ){\n                conf.state = ConfirmationState.RECEIVING;\n                emit ConfirmaionStateChanged( _orderId ,ConfirmationState.RECEIVING );\n            }\n        }else if ( conf.state == ConfirmationState.RECEIVING ){\n            if ( conf.recievingRecipient != address(0) &&\n                 conf.recievingCondignor != address(0) ){\n                conf.state = ConfirmationState.RECEIVED;\n                emit ConfirmaionStateChanged( _orderId ,ConfirmationState.RECEIVED );\n            }\n        }\n        store[_orderId] = conf;\n    }\n\n    function isConfirmed( uint _orderId, address consigor, address recipient ) public view returns ( bool eval ) {\n        ConfirmationMechanism memory conf = getConfirmation( _orderId );\n        if ( conf.shippingCondignor == consigor &&\n            conf.shippingRecipient == recipient){\n            return true;\n        }\n\n        if ( conf.deliveringCondignor == consigor &&\n            conf.deliveringRecipient == recipient){\n            return true;\n        }\n\n        if ( conf.returningCondignor == consigor &&\n            conf.returningRecipient == recipient){\n            return true;\n        }\n\n        if ( conf.recievingCondignor == consigor &&\n            conf.recievingRecipient == recipient){\n            return true;\n        }\n\n        return false;\n}\n\n}\n",
  "sourcePath": "/Users/simonurbanek/NoCloud/blockChain/orderApp/src/contracts/DeliveryContract.sol",
  "compiler": {
    "name": "solc",
    "version": "0.8.0+commit.c7dfd78e.Emscripten.clang"
  },
  "schemaVersion": "3.4.0",
  "updatedAt": "2021-04-24T09:45:23.637Z",
  "networkType": "ethereum",
  "devdoc": {
    "kind": "dev",
    "methods": {},
    "version": 1
  },
  "userdoc": {
    "kind": "user",
    "methods": {},
    "version": 1
  }
}