{
  "contractName": "OrderLogicContract",
  "abi": [
    {
      "inputs": [],
      "stateMutability": "nonpayable",
      "type": "constructor"
    },
    {
      "anonymous": false,
      "inputs": [
        {
          "indexed": false,
          "internalType": "uint256",
          "name": "orderId",
          "type": "uint256"
        },
        {
          "indexed": false,
          "internalType": "enum OrderLogicContract.OrderState",
          "name": "state",
          "type": "uint8"
        }
      ],
      "name": "OrderStateChanged",
      "type": "event"
    },
    {
      "inputs": [
        {
          "internalType": "address",
          "name": "",
          "type": "address"
        }
      ],
      "name": "adressOrder",
      "outputs": [
        {
          "internalType": "uint256",
          "name": "",
          "type": "uint256"
        }
      ],
      "stateMutability": "view",
      "type": "function",
      "constant": true
    },
    {
      "inputs": [],
      "name": "authority",
      "outputs": [
        {
          "internalType": "address",
          "name": "",
          "type": "address"
        }
      ],
      "stateMutability": "view",
      "type": "function",
      "constant": true
    },
    {
      "inputs": [
        {
          "internalType": "uint256",
          "name": "",
          "type": "uint256"
        }
      ],
      "name": "customerRecievement",
      "outputs": [
        {
          "internalType": "address",
          "name": "condignor",
          "type": "address"
        },
        {
          "internalType": "address",
          "name": "recipient",
          "type": "address"
        },
        {
          "internalType": "uint256",
          "name": "consignorConfimraiton",
          "type": "uint256"
        },
        {
          "internalType": "uint256",
          "name": "recipientConfimraiton",
          "type": "uint256"
        },
        {
          "internalType": "bool",
          "name": "exists",
          "type": "bool"
        }
      ],
      "stateMutability": "view",
      "type": "function",
      "constant": true
    },
    {
      "inputs": [
        {
          "internalType": "uint256",
          "name": "",
          "type": "uint256"
        }
      ],
      "name": "customerShipment",
      "outputs": [
        {
          "internalType": "address",
          "name": "condignor",
          "type": "address"
        },
        {
          "internalType": "address",
          "name": "recipient",
          "type": "address"
        },
        {
          "internalType": "uint256",
          "name": "consignorConfimraiton",
          "type": "uint256"
        },
        {
          "internalType": "uint256",
          "name": "recipientConfimraiton",
          "type": "uint256"
        },
        {
          "internalType": "bool",
          "name": "exists",
          "type": "bool"
        }
      ],
      "stateMutability": "view",
      "type": "function",
      "constant": true
    },
    {
      "inputs": [],
      "name": "orderCount",
      "outputs": [
        {
          "internalType": "uint256",
          "name": "",
          "type": "uint256"
        }
      ],
      "stateMutability": "view",
      "type": "function",
      "constant": true
    },
    {
      "inputs": [
        {
          "internalType": "uint256",
          "name": "",
          "type": "uint256"
        }
      ],
      "name": "orders",
      "outputs": [
        {
          "internalType": "uint256",
          "name": "id",
          "type": "uint256"
        },
        {
          "internalType": "address payable",
          "name": "customer",
          "type": "address"
        },
        {
          "internalType": "address payable",
          "name": "store",
          "type": "address"
        },
        {
          "internalType": "address",
          "name": "deliverer",
          "type": "address"
        },
        {
          "internalType": "uint256",
          "name": "costInTotal",
          "type": "uint256"
        },
        {
          "internalType": "int256",
          "name": "acceptedDate",
          "type": "int256"
        },
        {
          "internalType": "uint256",
          "name": "productListHash",
          "type": "uint256"
        },
        {
          "internalType": "uint256",
          "name": "returnedProductListHash",
          "type": "uint256"
        },
        {
          "internalType": "uint256",
          "name": "returnedListHash",
          "type": "uint256"
        },
        {
          "internalType": "uint256",
          "name": "customerInformationHash",
          "type": "uint256"
        },
        {
          "internalType": "enum OrderLogicContract.OrderState",
          "name": "state",
          "type": "uint8"
        }
      ],
      "stateMutability": "view",
      "type": "function",
      "constant": true
    },
    {
      "inputs": [
        {
          "internalType": "uint256",
          "name": "",
          "type": "uint256"
        }
      ],
      "name": "settlements",
      "outputs": [
        {
          "internalType": "uint256",
          "name": "refundedAmount",
          "type": "uint256"
        },
        {
          "internalType": "string",
          "name": "reason",
          "type": "string"
        },
        {
          "internalType": "bool",
          "name": "accepted",
          "type": "bool"
        },
        {
          "internalType": "uint256",
          "name": "decicedRefundAmount",
          "type": "uint256"
        },
        {
          "internalType": "bool",
          "name": "exists",
          "type": "bool"
        }
      ],
      "stateMutability": "view",
      "type": "function",
      "constant": true
    },
    {
      "inputs": [
        {
          "internalType": "uint256",
          "name": "",
          "type": "uint256"
        }
      ],
      "name": "storeRecievement",
      "outputs": [
        {
          "internalType": "address",
          "name": "condignor",
          "type": "address"
        },
        {
          "internalType": "address",
          "name": "recipient",
          "type": "address"
        },
        {
          "internalType": "uint256",
          "name": "consignorConfimraiton",
          "type": "uint256"
        },
        {
          "internalType": "uint256",
          "name": "recipientConfimraiton",
          "type": "uint256"
        },
        {
          "internalType": "bool",
          "name": "exists",
          "type": "bool"
        }
      ],
      "stateMutability": "view",
      "type": "function",
      "constant": true
    },
    {
      "inputs": [
        {
          "internalType": "uint256",
          "name": "",
          "type": "uint256"
        }
      ],
      "name": "storeShipnent",
      "outputs": [
        {
          "internalType": "address",
          "name": "condignor",
          "type": "address"
        },
        {
          "internalType": "address",
          "name": "recipient",
          "type": "address"
        },
        {
          "internalType": "uint256",
          "name": "consignorConfimraiton",
          "type": "uint256"
        },
        {
          "internalType": "uint256",
          "name": "recipientConfimraiton",
          "type": "uint256"
        },
        {
          "internalType": "bool",
          "name": "exists",
          "type": "bool"
        }
      ],
      "stateMutability": "view",
      "type": "function",
      "constant": true
    },
    {
      "inputs": [
        {
          "internalType": "address payable",
          "name": "_customer",
          "type": "address"
        },
        {
          "internalType": "address payable",
          "name": "_store",
          "type": "address"
        },
        {
          "internalType": "address",
          "name": "_deliverer",
          "type": "address"
        },
        {
          "internalType": "string",
          "name": "_productsList",
          "type": "string"
        },
        {
          "internalType": "uint256",
          "name": "_productCount",
          "type": "uint256"
        },
        {
          "internalType": "uint256",
          "name": "_costInTotal",
          "type": "uint256"
        }
      ],
      "name": "createOrder",
      "outputs": [
        {
          "internalType": "uint256",
          "name": "orderId",
          "type": "uint256"
        }
      ],
      "stateMutability": "nonpayable",
      "type": "function"
    },
    {
      "inputs": [
        {
          "internalType": "uint256",
          "name": "_orderId",
          "type": "uint256"
        }
      ],
      "name": "payOrder",
      "outputs": [],
      "stateMutability": "payable",
      "type": "function",
      "payable": true
    },
    {
      "inputs": [
        {
          "internalType": "uint256",
          "name": "_orderId",
          "type": "uint256"
        }
      ],
      "name": "acceptOrder",
      "outputs": [],
      "stateMutability": "nonpayable",
      "type": "function"
    },
    {
      "inputs": [
        {
          "internalType": "uint256",
          "name": "_orderId",
          "type": "uint256"
        },
        {
          "internalType": "string",
          "name": "_productsList",
          "type": "string"
        }
      ],
      "name": "returnProducts",
      "outputs": [],
      "stateMutability": "nonpayable",
      "type": "function"
    },
    {
      "inputs": [
        {
          "internalType": "uint256",
          "name": "_orderId",
          "type": "uint256"
        },
        {
          "internalType": "uint256",
          "name": "_amount",
          "type": "uint256"
        },
        {
          "internalType": "string",
          "name": "_reason",
          "type": "string"
        }
      ],
      "name": "makeProposal",
      "outputs": [],
      "stateMutability": "nonpayable",
      "type": "function"
    },
    {
      "inputs": [
        {
          "internalType": "uint256",
          "name": "_orderId",
          "type": "uint256"
        }
      ],
      "name": "makeRefund",
      "outputs": [],
      "stateMutability": "nonpayable",
      "type": "function"
    },
    {
      "inputs": [
        {
          "internalType": "uint256",
          "name": "_orderId",
          "type": "uint256"
        },
        {
          "internalType": "bool",
          "name": "_accept",
          "type": "bool"
        }
      ],
      "name": "proposalAcceptence",
      "outputs": [],
      "stateMutability": "nonpayable",
      "type": "function"
    },
    {
      "inputs": [
        {
          "internalType": "uint256",
          "name": "_orderId",
          "type": "uint256"
        },
        {
          "internalType": "uint256",
          "name": "_amount",
          "type": "uint256"
        }
      ],
      "name": "unfroze",
      "outputs": [],
      "stateMutability": "nonpayable",
      "type": "function"
    },
    {
      "inputs": [
        {
          "internalType": "uint256",
          "name": "_orderId",
          "type": "uint256"
        }
      ],
      "name": "cancelOrder",
      "outputs": [],
      "stateMutability": "nonpayable",
      "type": "function"
    },
    {
      "inputs": [
        {
          "internalType": "uint256",
          "name": "_orderId",
          "type": "uint256"
        },
        {
          "internalType": "address",
          "name": "_deliveryContractAdress",
          "type": "address"
        }
      ],
      "name": "confirmationMechanism",
      "outputs": [],
      "stateMutability": "nonpayable",
      "type": "function"
    },
    {
      "inputs": [
        {
          "internalType": "uint256",
          "name": "_orderId",
          "type": "uint256"
        }
      ],
      "name": "step",
      "outputs": [],
      "stateMutability": "nonpayable",
      "type": "function"
    }
  ],
  "bytecode": "0x6080604052600060015534801561001557600080fd5b50336000806101000a81548173ffffffffffffffffffffffffffffffffffffffff021916908373ffffffffffffffffffffffffffffffffffffffff16021790555061578e80620000666000396000f3fe60806040526004361061011f5760003560e01c806366ead205116100a0578063bec176ec11610064578063bec176ec14610426578063bf7e214f1461044f578063dcf7b1d01461047a578063ef18e9ed146104a3578063f0ea01fe146104cc5761011f565b806366ead205146103135780636f2a7072146103505780639886eaa81461038d578063a0a3fc6d146103b6578063a85c38ef146103df5761011f565b80632a685d3c116100e75780632a685d3c146102535780633a1cde751461026f578063514fcac71461029857806355ef0e66146102c1578063640a0869146102ea5761011f565b806308df7dc814610124578063173a572a146101655780631bdabd7e146101a6578063237797aa146101e75780632453ffa814610228575b600080fd5b34801561013057600080fd5b5061014b60048036038101906101469190614f8f565b61050d565b60405161015c959493929190615394565b60405180910390f35b34801561017157600080fd5b5061018c60048036038101906101879190614f8f565b6105e5565b60405161019d9594939291906151e4565b60405180910390f35b3480156101b257600080fd5b506101cd60048036038101906101c89190614f8f565b610668565b6040516101de9594939291906151e4565b60405180910390f35b3480156101f357600080fd5b5061020e60048036038101906102099190614f8f565b6106eb565b60405161021f9594939291906151e4565b60405180910390f35b34801561023457600080fd5b5061023d61076e565b60405161024a9190615237565b60405180910390f35b61026d60048036038101906102689190614f8f565b610774565b005b34801561027b57600080fd5b5061029660048036038101906102919190614f8f565b610c5e565b005b3480156102a457600080fd5b506102bf60048036038101906102ba9190614f8f565b611184565b005b3480156102cd57600080fd5b506102e860048036038101906102e39190615030565b611921565b005b3480156102f657600080fd5b50610311600480360381019061030c9190614ff4565b611d8a565b005b34801561031f57600080fd5b5061033a60048036038101906103359190614e9c565b6124cd565b6040516103479190615237565b60405180910390f35b34801561035c57600080fd5b5061037760048036038101906103729190614ec5565b6124e5565b6040516103849190615237565b60405180910390f35b34801561039957600080fd5b506103b460048036038101906103af9190615084565b61279f565b005b3480156103c257600080fd5b506103dd60048036038101906103d89190614f8f565b612e7e565b005b3480156103eb57600080fd5b5061040660048036038101906104019190614f8f565b6133e3565b60405161041d9b9a99989796959493929190615289565b60405180910390f35b34801561043257600080fd5b5061044d60048036038101906104489190614fb8565b6134aa565b005b34801561045b57600080fd5b50610464613f0c565b60405161047191906151c9565b60405180910390f35b34801561048657600080fd5b506104a1600480360381019061049c91906150c0565b613f30565b005b3480156104af57600080fd5b506104ca60048036038101906104c59190614f8f565b61450e565b005b3480156104d857600080fd5b506104f360048036038101906104ee9190614f8f565b614a24565b6040516105049594939291906151e4565b60405180910390f35b6007602052806000526040600020600091509050806000015490806001018054610536906155a0565b80601f0160208091040260200160405190810160405280929190818152602001828054610562906155a0565b80156105af5780601f10610584576101008083540402835291602001916105af565b820191906000526020600020905b81548152906001019060200180831161059257829003601f168201915b5050505050908060020160009054906101000a900460ff16908060030154908060040160009054906101000a900460ff16905085565b60046020528060005260406000206000915090508060000160009054906101000a900473ffffffffffffffffffffffffffffffffffffffff16908060010160009054906101000a900473ffffffffffffffffffffffffffffffffffffffff16908060020154908060030154908060040160009054906101000a900460ff16905085565b60036020528060005260406000206000915090508060000160009054906101000a900473ffffffffffffffffffffffffffffffffffffffff16908060010160009054906101000a900473ffffffffffffffffffffffffffffffffffffffff16908060020154908060030154908060040160009054906101000a900460ff16905085565b60056020528060005260406000206000915090508060000160009054906101000a900473ffffffffffffffffffffffffffffffffffffffff16908060010160009054906101000a900473ffffffffffffffffffffffffffffffffffffffff16908060020154908060030154908060040160009054906101000a900460ff16905085565b60015481565b60008111801561078657506001548111155b61078f57600080fd5b60006002600083815260200190815260200160002060405180610160016040529081600082015481526020016001820160009054906101000a900473ffffffffffffffffffffffffffffffffffffffff1673ffffffffffffffffffffffffffffffffffffffff1673ffffffffffffffffffffffffffffffffffffffff1681526020016002820160009054906101000a900473ffffffffffffffffffffffffffffffffffffffff1673ffffffffffffffffffffffffffffffffffffffff1673ffffffffffffffffffffffffffffffffffffffff1681526020016003820160009054906101000a900473ffffffffffffffffffffffffffffffffffffffff1673ffffffffffffffffffffffffffffffffffffffff1673ffffffffffffffffffffffffffffffffffffffff168152602001600482015481526020016005820154815260200160068201548152602001600782015481526020016008820154815260200160098201548152602001600a820160009054906101000a900460ff16600b811115610943577f4e487b7100000000000000000000000000000000000000000000000000000000600052602160045260246000fd5b600b81111561097b577f4e487b7100000000000000000000000000000000000000000000000000000000600052602160045260246000fd5b8152505090506000600b8111156109bb577f4e487b7100000000000000000000000000000000000000000000000000000000600052602160045260246000fd5b816101400151600b8111156109f9577f4e487b7100000000000000000000000000000000000000000000000000000000600052602160045260246000fd5b14610a0357600080fd5b34816080015114610a1357600080fd5b6001816101400190600b811115610a53577f4e487b7100000000000000000000000000000000000000000000000000000000600052602160045260246000fd5b9081600b811115610a8d577f4e487b7100000000000000000000000000000000000000000000000000000000600052602160045260246000fd5b8152505080600260008481526020019081526020016000206000820151816000015560208201518160010160006101000a81548173ffffffffffffffffffffffffffffffffffffffff021916908373ffffffffffffffffffffffffffffffffffffffff16021790555060408201518160020160006101000a81548173ffffffffffffffffffffffffffffffffffffffff021916908373ffffffffffffffffffffffffffffffffffffffff16021790555060608201518160030160006101000a81548173ffffffffffffffffffffffffffffffffffffffff021916908373ffffffffffffffffffffffffffffffffffffffff1602179055506080820151816004015560a0820151816005015560c0820151816006015560e082015181600701556101008201518160080155610120820151816009015561014082015181600a0160006101000a81548160ff0219169083600b811115610c14577f4e487b7100000000000000000000000000000000000000000000000000000000600052602160045260246000fd5b02179055509050507fd19c095b6663262c0d185cb9af2f6b124da71e0ade064635e320fda8c705a1bc82826101400151604051610c5292919061536b565b60405180910390a15050565b600081118015610c7057506001548111155b610c7957600080fd5b60006002600083815260200190815260200160002060405180610160016040529081600082015481526020016001820160009054906101000a900473ffffffffffffffffffffffffffffffffffffffff1673ffffffffffffffffffffffffffffffffffffffff1673ffffffffffffffffffffffffffffffffffffffff1681526020016002820160009054906101000a900473ffffffffffffffffffffffffffffffffffffffff1673ffffffffffffffffffffffffffffffffffffffff1673ffffffffffffffffffffffffffffffffffffffff1681526020016003820160009054906101000a900473ffffffffffffffffffffffffffffffffffffffff1673ffffffffffffffffffffffffffffffffffffffff1673ffffffffffffffffffffffffffffffffffffffff168152602001600482015481526020016005820154815260200160068201548152602001600782015481526020016008820154815260200160098201548152602001600a820160009054906101000a900460ff16600b811115610e2d577f4e487b7100000000000000000000000000000000000000000000000000000000600052602160045260246000fd5b600b811115610e65577f4e487b7100000000000000000000000000000000000000000000000000000000600052602160045260246000fd5b8152505090506005600b811115610ea5577f4e487b7100000000000000000000000000000000000000000000000000000000600052602160045260246000fd5b816101400151600b811115610ee3577f4e487b7100000000000000000000000000000000000000000000000000000000600052602160045260246000fd5b141561118057806040015173ffffffffffffffffffffffffffffffffffffffff166108fc82608001519081150290604051600060405180830381858888f19350505050158015610f37573d6000803e3d6000fd5b506006816101400190600b811115610f78577f4e487b7100000000000000000000000000000000000000000000000000000000600052602160045260246000fd5b9081600b811115610fb2577f4e487b7100000000000000000000000000000000000000000000000000000000600052602160045260246000fd5b8152505080600260008481526020019081526020016000206000820151816000015560208201518160010160006101000a81548173ffffffffffffffffffffffffffffffffffffffff021916908373ffffffffffffffffffffffffffffffffffffffff16021790555060408201518160020160006101000a81548173ffffffffffffffffffffffffffffffffffffffff021916908373ffffffffffffffffffffffffffffffffffffffff16021790555060608201518160030160006101000a81548173ffffffffffffffffffffffffffffffffffffffff021916908373ffffffffffffffffffffffffffffffffffffffff1602179055506080820151816004015560a0820151816005015560c0820151816006015560e082015181600701556101008201518160080155610120820151816009015561014082015181600a0160006101000a81548160ff0219169083600b811115611139577f4e487b7100000000000000000000000000000000000000000000000000000000600052602160045260246000fd5b02179055509050507fd19c095b6663262c0d185cb9af2f6b124da71e0ade064635e320fda8c705a1bc8282610140015160405161117792919061536b565b60405180910390a15b5050565b60008111801561119657506001548111155b61119f57600080fd5b60006002600083815260200190815260200160002060405180610160016040529081600082015481526020016001820160009054906101000a900473ffffffffffffffffffffffffffffffffffffffff1673ffffffffffffffffffffffffffffffffffffffff1673ffffffffffffffffffffffffffffffffffffffff1681526020016002820160009054906101000a900473ffffffffffffffffffffffffffffffffffffffff1673ffffffffffffffffffffffffffffffffffffffff1673ffffffffffffffffffffffffffffffffffffffff1681526020016003820160009054906101000a900473ffffffffffffffffffffffffffffffffffffffff1673ffffffffffffffffffffffffffffffffffffffff1673ffffffffffffffffffffffffffffffffffffffff168152602001600482015481526020016005820154815260200160068201548152602001600782015481526020016008820154815260200160098201548152602001600a820160009054906101000a900460ff16600b811115611353577f4e487b7100000000000000000000000000000000000000000000000000000000600052602160045260246000fd5b600b81111561138b577f4e487b7100000000000000000000000000000000000000000000000000000000600052602160045260246000fd5b8152505090503373ffffffffffffffffffffffffffffffffffffffff16816040015173ffffffffffffffffffffffffffffffffffffffff1614806113fe57503373ffffffffffffffffffffffffffffffffffffffff16816020015173ffffffffffffffffffffffffffffffffffffffff16145b61140757600080fd5b6000600b811115611441577f4e487b7100000000000000000000000000000000000000000000000000000000600052602160045260246000fd5b816101400151600b81111561147f577f4e487b7100000000000000000000000000000000000000000000000000000000600052602160045260246000fd5b148061150057506001600b8111156114c0577f4e487b7100000000000000000000000000000000000000000000000000000000600052602160045260246000fd5b816101400151600b8111156114fe577f4e487b7100000000000000000000000000000000000000000000000000000000600052602160045260246000fd5b145b8061158057506002600b811115611540577f4e487b7100000000000000000000000000000000000000000000000000000000600052602160045260246000fd5b816101400151600b81111561157e577f4e487b7100000000000000000000000000000000000000000000000000000000600052602160045260246000fd5b145b8061160057506003600b8111156115c0577f4e487b7100000000000000000000000000000000000000000000000000000000600052602160045260246000fd5b816101400151600b8111156115fe577f4e487b7100000000000000000000000000000000000000000000000000000000600052602160045260246000fd5b145b61160957600080fd5b6000600b811115611643577f4e487b7100000000000000000000000000000000000000000000000000000000600052602160045260246000fd5b816101400151600b811115611681577f4e487b7100000000000000000000000000000000000000000000000000000000600052602160045260246000fd5b146116d657806020015173ffffffffffffffffffffffffffffffffffffffff166108fc82608001519081150290604051600060405180830381858888f193505050501580156116d4573d6000803e3d6000fd5b505b6004816101400190600b811115611716577f4e487b7100000000000000000000000000000000000000000000000000000000600052602160045260246000fd5b9081600b811115611750577f4e487b7100000000000000000000000000000000000000000000000000000000600052602160045260246000fd5b8152505080600260008481526020019081526020016000206000820151816000015560208201518160010160006101000a81548173ffffffffffffffffffffffffffffffffffffffff021916908373ffffffffffffffffffffffffffffffffffffffff16021790555060408201518160020160006101000a81548173ffffffffffffffffffffffffffffffffffffffff021916908373ffffffffffffffffffffffffffffffffffffffff16021790555060608201518160030160006101000a81548173ffffffffffffffffffffffffffffffffffffffff021916908373ffffffffffffffffffffffffffffffffffffffff1602179055506080820151816004015560a0820151816005015560c0820151816006015560e082015181600701556101008201518160080155610120820151816009015561014082015181600a0160006101000a81548160ff0219169083600b8111156118d7577f4e487b7100000000000000000000000000000000000000000000000000000000600052602160045260246000fd5b02179055509050507fd19c095b6663262c0d185cb9af2f6b124da71e0ade064635e320fda8c705a1bc8282610140015160405161191592919061536b565b60405180910390a15050565b60008211801561193357506001548211155b61193c57600080fd5b60006002600084815260200190815260200160002060405180610160016040529081600082015481526020016001820160009054906101000a900473ffffffffffffffffffffffffffffffffffffffff1673ffffffffffffffffffffffffffffffffffffffff1673ffffffffffffffffffffffffffffffffffffffff1681526020016002820160009054906101000a900473ffffffffffffffffffffffffffffffffffffffff1673ffffffffffffffffffffffffffffffffffffffff1673ffffffffffffffffffffffffffffffffffffffff1681526020016003820160009054906101000a900473ffffffffffffffffffffffffffffffffffffffff1673ffffffffffffffffffffffffffffffffffffffff1673ffffffffffffffffffffffffffffffffffffffff168152602001600482015481526020016005820154815260200160068201548152602001600782015481526020016008820154815260200160098201548152602001600a820160009054906101000a900460ff16600b811115611af0577f4e487b7100000000000000000000000000000000000000000000000000000000600052602160045260246000fd5b600b811115611b28577f4e487b7100000000000000000000000000000000000000000000000000000000600052602160045260246000fd5b8152505090506005600b811115611b68577f4e487b7100000000000000000000000000000000000000000000000000000000600052602160045260246000fd5b816101400151600b811115611ba6577f4e487b7100000000000000000000000000000000000000000000000000000000600052602160045260246000fd5b14611bb057600080fd5b60018161010001818152505080600260008581526020019081526020016000206000820151816000015560208201518160010160006101000a81548173ffffffffffffffffffffffffffffffffffffffff021916908373ffffffffffffffffffffffffffffffffffffffff16021790555060408201518160020160006101000a81548173ffffffffffffffffffffffffffffffffffffffff021916908373ffffffffffffffffffffffffffffffffffffffff16021790555060608201518160030160006101000a81548173ffffffffffffffffffffffffffffffffffffffff021916908373ffffffffffffffffffffffffffffffffffffffff1602179055506080820151816004015560a0820151816005015560c0820151816006015560e082015181600701556101008201518160080155610120820151816009015561014082015181600a0160006101000a81548160ff0219169083600b811115611d3f577f4e487b7100000000000000000000000000000000000000000000000000000000600052602160045260246000fd5b02179055509050507fd19c095b6663262c0d185cb9af2f6b124da71e0ade064635e320fda8c705a1bc83826101400151604051611d7d92919061536b565b60405180910390a1505050565b600082118015611d9c57506001548211155b611da557600080fd5b60006002600084815260200190815260200160002060405180610160016040529081600082015481526020016001820160009054906101000a900473ffffffffffffffffffffffffffffffffffffffff1673ffffffffffffffffffffffffffffffffffffffff1673ffffffffffffffffffffffffffffffffffffffff1681526020016002820160009054906101000a900473ffffffffffffffffffffffffffffffffffffffff1673ffffffffffffffffffffffffffffffffffffffff1673ffffffffffffffffffffffffffffffffffffffff1681526020016003820160009054906101000a900473ffffffffffffffffffffffffffffffffffffffff1673ffffffffffffffffffffffffffffffffffffffff1673ffffffffffffffffffffffffffffffffffffffff168152602001600482015481526020016005820154815260200160068201548152602001600782015481526020016008820154815260200160098201548152602001600a820160009054906101000a900460ff16600b811115611f59577f4e487b7100000000000000000000000000000000000000000000000000000000600052602160045260246000fd5b600b811115611f91577f4e487b7100000000000000000000000000000000000000000000000000000000600052602160045260246000fd5b8152505090506009600b811115611fd1577f4e487b7100000000000000000000000000000000000000000000000000000000600052602160045260246000fd5b816101400151600b81111561200f577f4e487b7100000000000000000000000000000000000000000000000000000000600052602160045260246000fd5b1461201957600080fd5b806020015173ffffffffffffffffffffffffffffffffffffffff163373ffffffffffffffffffffffffffffffffffffffff161461205557600080fd5b8115612280576000600760008581526020019081526020016000206040518060a001604052908160008201548152602001600182018054612095906155a0565b80601f01602080910402602001604051908101604052809291908181526020018280546120c1906155a0565b801561210e5780601f106120e35761010080835404028352916020019161210e565b820191906000526020600020905b8154815290600101906020018083116120f157829003601f168201915b505050505081526020016002820160009054906101000a900460ff16151515158152602001600382015481526020016004820160009054906101000a900460ff1615151515815250509050600181604001901515908115158152505080600760008681526020019081526020016000206000820151816000015560208201518160010190805190602001906121a4929190614d28565b5060408201518160020160006101000a81548160ff0219169083151502179055506060820151816003015560808201518160040160006101000a81548160ff0219169083151502179055509050506121fc8282614aa7565b600b826101400190600b81111561223c577f4e487b7100000000000000000000000000000000000000000000000000000000600052602160045260246000fd5b9081600b811115612276577f4e487b7100000000000000000000000000000000000000000000000000000000600052602160045260246000fd5b81525050506122ff565b600a816101400190600b8111156122c0577f4e487b7100000000000000000000000000000000000000000000000000000000600052602160045260246000fd5b9081600b8111156122fa577f4e487b7100000000000000000000000000000000000000000000000000000000600052602160045260246000fd5b815250505b80600260008581526020019081526020016000206000820151816000015560208201518160010160006101000a81548173ffffffffffffffffffffffffffffffffffffffff021916908373ffffffffffffffffffffffffffffffffffffffff16021790555060408201518160020160006101000a81548173ffffffffffffffffffffffffffffffffffffffff021916908373ffffffffffffffffffffffffffffffffffffffff16021790555060608201518160030160006101000a81548173ffffffffffffffffffffffffffffffffffffffff021916908373ffffffffffffffffffffffffffffffffffffffff1602179055506080820151816004015560a0820151816005015560c0820151816006015560e082015181600701556101008201518160080155610120820151816009015561014082015181600a0160006101000a81548160ff0219169083600b811115612482577f4e487b7100000000000000000000000000000000000000000000000000000000600052602160045260246000fd5b02179055509050507fd19c095b6663262c0d185cb9af2f6b124da71e0ade064635e320fda8c705a1bc838261014001516040516124c092919061536b565b60405180910390a1505050565b60086020528060005260406000206000915090505481565b6000600160008154809291906124fa906155d2565b919050555060405180610160016040528060015481526020018873ffffffffffffffffffffffffffffffffffffffff1681526020018773ffffffffffffffffffffffffffffffffffffffff1681526020018673ffffffffffffffffffffffffffffffffffffffff16815260200183815260200160008152602001600081526020016000815260200160008152602001600081526020016000600b8111156125ca577f4e487b7100000000000000000000000000000000000000000000000000000000600052602160045260246000fd5b8152506002600060015481526020019081526020016000206000820151816000015560208201518160010160006101000a81548173ffffffffffffffffffffffffffffffffffffffff021916908373ffffffffffffffffffffffffffffffffffffffff16021790555060408201518160020160006101000a81548173ffffffffffffffffffffffffffffffffffffffff021916908373ffffffffffffffffffffffffffffffffffffffff16021790555060608201518160030160006101000a81548173ffffffffffffffffffffffffffffffffffffffff021916908373ffffffffffffffffffffffffffffffffffffffff1602179055506080820151816004015560a0820151816005015560c0820151816006015560e082015181600701556101008201518160080155610120820151816009015561014082015181600a0160006101000a81548160ff0219169083600b811115612751577f4e487b7100000000000000000000000000000000000000000000000000000000600052602160045260246000fd5b02179055509050507fd19c095b6663262c0d185cb9af2f6b124da71e0ade064635e320fda8c705a1bc600154600060405161278d92919061536b565b60405180910390a19695505050505050565b6000821180156127b157506001548211155b6127ba57600080fd5b60006002600084815260200190815260200160002060405180610160016040529081600082015481526020016001820160009054906101000a900473ffffffffffffffffffffffffffffffffffffffff1673ffffffffffffffffffffffffffffffffffffffff1673ffffffffffffffffffffffffffffffffffffffff1681526020016002820160009054906101000a900473ffffffffffffffffffffffffffffffffffffffff1673ffffffffffffffffffffffffffffffffffffffff1673ffffffffffffffffffffffffffffffffffffffff1681526020016003820160009054906101000a900473ffffffffffffffffffffffffffffffffffffffff1673ffffffffffffffffffffffffffffffffffffffff1673ffffffffffffffffffffffffffffffffffffffff168152602001600482015481526020016005820154815260200160068201548152602001600782015481526020016008820154815260200160098201548152602001600a820160009054906101000a900460ff16600b81111561296e577f4e487b7100000000000000000000000000000000000000000000000000000000600052602160045260246000fd5b600b8111156129a6577f4e487b7100000000000000000000000000000000000000000000000000000000600052602160045260246000fd5b815250509050600a600b8111156129e6577f4e487b7100000000000000000000000000000000000000000000000000000000600052602160045260246000fd5b816101400151600b811115612a24577f4e487b7100000000000000000000000000000000000000000000000000000000600052602160045260246000fd5b14612a2e57600080fd5b60008054906101000a900473ffffffffffffffffffffffffffffffffffffffff1673ffffffffffffffffffffffffffffffffffffffff163373ffffffffffffffffffffffffffffffffffffffff1614612a8657600080fd5b8181608001511015612a9757600080fd5b6000600760008581526020019081526020016000206040518060a001604052908160008201548152602001600182018054612ad1906155a0565b80601f0160208091040260200160405190810160405280929190818152602001828054612afd906155a0565b8015612b4a5780601f10612b1f57610100808354040283529160200191612b4a565b820191906000526020600020905b815481529060010190602001808311612b2d57829003601f168201915b505050505081526020016002820160009054906101000a900460ff16151515158152602001600382015481526020016004820160009054906101000a900460ff1615151515815250509050828160600181815250508060076000868152602001908152602001600020600082015181600001556020820151816001019080519060200190612bd9929190614d28565b5060408201518160020160006101000a81548160ff0219169083151502179055506060820151816003015560808201518160040160006101000a81548160ff021916908315150217905550905050612c318282614aa7565b600b826101400190600b811115612c71577f4e487b7100000000000000000000000000000000000000000000000000000000600052602160045260246000fd5b9081600b811115612cab577f4e487b7100000000000000000000000000000000000000000000000000000000600052602160045260246000fd5b8152505081600260008681526020019081526020016000206000820151816000015560208201518160010160006101000a81548173ffffffffffffffffffffffffffffffffffffffff021916908373ffffffffffffffffffffffffffffffffffffffff16021790555060408201518160020160006101000a81548173ffffffffffffffffffffffffffffffffffffffff021916908373ffffffffffffffffffffffffffffffffffffffff16021790555060608201518160030160006101000a81548173ffffffffffffffffffffffffffffffffffffffff021916908373ffffffffffffffffffffffffffffffffffffffff1602179055506080820151816004015560a0820151816005015560c0820151816006015560e082015181600701556101008201518160080155610120820151816009015561014082015181600a0160006101000a81548160ff0219169083600b811115612e32577f4e487b7100000000000000000000000000000000000000000000000000000000600052602160045260246000fd5b02179055509050507fd19c095b6663262c0d185cb9af2f6b124da71e0ade064635e320fda8c705a1bc84836101400151604051612e7092919061536b565b60405180910390a150505050565b600081118015612e9057506001548111155b612e9957600080fd5b60006002600083815260200190815260200160002060405180610160016040529081600082015481526020016001820160009054906101000a900473ffffffffffffffffffffffffffffffffffffffff1673ffffffffffffffffffffffffffffffffffffffff1673ffffffffffffffffffffffffffffffffffffffff1681526020016002820160009054906101000a900473ffffffffffffffffffffffffffffffffffffffff1673ffffffffffffffffffffffffffffffffffffffff1673ffffffffffffffffffffffffffffffffffffffff1681526020016003820160009054906101000a900473ffffffffffffffffffffffffffffffffffffffff1673ffffffffffffffffffffffffffffffffffffffff1673ffffffffffffffffffffffffffffffffffffffff168152602001600482015481526020016005820154815260200160068201548152602001600782015481526020016008820154815260200160098201548152602001600a820160009054906101000a900460ff16600b81111561304d577f4e487b7100000000000000000000000000000000000000000000000000000000600052602160045260246000fd5b600b811115613085577f4e487b7100000000000000000000000000000000000000000000000000000000600052602160045260246000fd5b8152505090506008600b8111156130c5577f4e487b7100000000000000000000000000000000000000000000000000000000600052602160045260246000fd5b816101400151600b811115613103577f4e487b7100000000000000000000000000000000000000000000000000000000600052602160045260246000fd5b1461310d57600080fd5b806040015173ffffffffffffffffffffffffffffffffffffffff163373ffffffffffffffffffffffffffffffffffffffff161461314957600080fd5b806020015173ffffffffffffffffffffffffffffffffffffffff166108fc82608001519081150290604051600060405180830381858888f19350505050158015613197573d6000803e3d6000fd5b50600b816101400190600b8111156131d8577f4e487b7100000000000000000000000000000000000000000000000000000000600052602160045260246000fd5b9081600b811115613212577f4e487b7100000000000000000000000000000000000000000000000000000000600052602160045260246000fd5b8152505080600260008481526020019081526020016000206000820151816000015560208201518160010160006101000a81548173ffffffffffffffffffffffffffffffffffffffff021916908373ffffffffffffffffffffffffffffffffffffffff16021790555060408201518160020160006101000a81548173ffffffffffffffffffffffffffffffffffffffff021916908373ffffffffffffffffffffffffffffffffffffffff16021790555060608201518160030160006101000a81548173ffffffffffffffffffffffffffffffffffffffff021916908373ffffffffffffffffffffffffffffffffffffffff1602179055506080820151816004015560a0820151816005015560c0820151816006015560e082015181600701556101008201518160080155610120820151816009015561014082015181600a0160006101000a81548160ff0219169083600b811115613399577f4e487b7100000000000000000000000000000000000000000000000000000000600052602160045260246000fd5b02179055509050507fd19c095b6663262c0d185cb9af2f6b124da71e0ade064635e320fda8c705a1bc828261014001516040516133d792919061536b565b60405180910390a15050565b60026020528060005260406000206000915090508060000154908060010160009054906101000a900473ffffffffffffffffffffffffffffffffffffffff16908060020160009054906101000a900473ffffffffffffffffffffffffffffffffffffffff16908060030160009054906101000a900473ffffffffffffffffffffffffffffffffffffffff169080600401549080600501549080600601549080600701549080600801549080600901549080600a0160009054906101000a900460ff1690508b565b6134b381614d15565b6134bc57600080fd5b6000821180156134ce57506001548211155b6134d757600080fd5b60006002600084815260200190815260200160002060405180610160016040529081600082015481526020016001820160009054906101000a900473ffffffffffffffffffffffffffffffffffffffff1673ffffffffffffffffffffffffffffffffffffffff1673ffffffffffffffffffffffffffffffffffffffff1681526020016002820160009054906101000a900473ffffffffffffffffffffffffffffffffffffffff1673ffffffffffffffffffffffffffffffffffffffff1673ffffffffffffffffffffffffffffffffffffffff1681526020016003820160009054906101000a900473ffffffffffffffffffffffffffffffffffffffff1673ffffffffffffffffffffffffffffffffffffffff1673ffffffffffffffffffffffffffffffffffffffff168152602001600482015481526020016005820154815260200160068201548152602001600782015481526020016008820154815260200160098201548152602001600a820160009054906101000a900460ff16600b81111561368b577f4e487b7100000000000000000000000000000000000000000000000000000000600052602160045260246000fd5b600b8111156136c3577f4e487b7100000000000000000000000000000000000000000000000000000000600052602160045260246000fd5b81525050905060008290506002600b811115613708577f4e487b7100000000000000000000000000000000000000000000000000000000600052602160045260246000fd5b826101400151600b811115613746577f4e487b7100000000000000000000000000000000000000000000000000000000600052602160045260246000fd5b141561386a578073ffffffffffffffffffffffffffffffffffffffff166355f9d66e85846040015185606001516040518463ffffffff1660e01b815260040161379193929190615252565b60206040518083038186803b1580156137a957600080fd5b505afa1580156137bd573d6000803e3d6000fd5b505050506040513d601f19601f820116820180604052508101906137e19190614f66565b15613865576003826101400190600b811115613826577f4e487b7100000000000000000000000000000000000000000000000000000000600052602160045260246000fd5b9081600b811115613860577f4e487b7100000000000000000000000000000000000000000000000000000000600052602160045260246000fd5b815250505b613d3d565b6003600b8111156138a4577f4e487b7100000000000000000000000000000000000000000000000000000000600052602160045260246000fd5b826101400151600b8111156138e2577f4e487b7100000000000000000000000000000000000000000000000000000000600052602160045260246000fd5b1415613a06578073ffffffffffffffffffffffffffffffffffffffff166355f9d66e85846060015185602001516040518463ffffffff1660e01b815260040161392d93929190615334565b60206040518083038186803b15801561394557600080fd5b505afa158015613959573d6000803e3d6000fd5b505050506040513d601f19601f8201168201806040525081019061397d9190614f66565b15613a01576005826101400190600b8111156139c2577f4e487b7100000000000000000000000000000000000000000000000000000000600052602160045260246000fd5b9081600b8111156139fc577f4e487b7100000000000000000000000000000000000000000000000000000000600052602160045260246000fd5b815250505b613d3c565b6005600b811115613a40577f4e487b7100000000000000000000000000000000000000000000000000000000600052602160045260246000fd5b826101400151600b811115613a7e577f4e487b7100000000000000000000000000000000000000000000000000000000600052602160045260246000fd5b1415613ba2578073ffffffffffffffffffffffffffffffffffffffff166355f9d66e85846020015185606001516040518463ffffffff1660e01b8152600401613ac993929190615252565b60206040518083038186803b158015613ae157600080fd5b505afa158015613af5573d6000803e3d6000fd5b505050506040513d601f19601f82011682018060405250810190613b199190614f66565b15613b9d576007826101400190600b811115613b5e577f4e487b7100000000000000000000000000000000000000000000000000000000600052602160045260246000fd5b9081600b811115613b98577f4e487b7100000000000000000000000000000000000000000000000000000000600052602160045260246000fd5b815250505b613d3b565b6007600b811115613bdc577f4e487b7100000000000000000000000000000000000000000000000000000000600052602160045260246000fd5b826101400151600b811115613c1a577f4e487b7100000000000000000000000000000000000000000000000000000000600052602160045260246000fd5b1415613d3a578073ffffffffffffffffffffffffffffffffffffffff166355f9d66e85846060015185604001516040518463ffffffff1660e01b8152600401613c6593929190615334565b60206040518083038186803b158015613c7d57600080fd5b505afa158015613c91573d6000803e3d6000fd5b505050506040513d601f19601f82011682018060405250810190613cb59190614f66565b15613d39576008826101400190600b811115613cfa577f4e487b7100000000000000000000000000000000000000000000000000000000600052602160045260246000fd5b9081600b811115613d34577f4e487b7100000000000000000000000000000000000000000000000000000000600052602160045260246000fd5b815250505b5b5b5b5b81600260008681526020019081526020016000206000820151816000015560208201518160010160006101000a81548173ffffffffffffffffffffffffffffffffffffffff021916908373ffffffffffffffffffffffffffffffffffffffff16021790555060408201518160020160006101000a81548173ffffffffffffffffffffffffffffffffffffffff021916908373ffffffffffffffffffffffffffffffffffffffff16021790555060608201518160030160006101000a81548173ffffffffffffffffffffffffffffffffffffffff021916908373ffffffffffffffffffffffffffffffffffffffff1602179055506080820151816004015560a0820151816005015560c0820151816006015560e082015181600701556101008201518160080155610120820151816009015561014082015181600a0160006101000a81548160ff0219169083600b811115613ec0577f4e487b7100000000000000000000000000000000000000000000000000000000600052602160045260246000fd5b02179055509050507fd19c095b6663262c0d185cb9af2f6b124da71e0ade064635e320fda8c705a1bc84836101400151604051613efe92919061536b565b60405180910390a150505050565b60008054906101000a900473ffffffffffffffffffffffffffffffffffffffff1681565b600083118015613f4257506001548311155b613f4b57600080fd5b60006002600085815260200190815260200160002060405180610160016040529081600082015481526020016001820160009054906101000a900473ffffffffffffffffffffffffffffffffffffffff1673ffffffffffffffffffffffffffffffffffffffff1673ffffffffffffffffffffffffffffffffffffffff1681526020016002820160009054906101000a900473ffffffffffffffffffffffffffffffffffffffff1673ffffffffffffffffffffffffffffffffffffffff1673ffffffffffffffffffffffffffffffffffffffff1681526020016003820160009054906101000a900473ffffffffffffffffffffffffffffffffffffffff1673ffffffffffffffffffffffffffffffffffffffff1673ffffffffffffffffffffffffffffffffffffffff168152602001600482015481526020016005820154815260200160068201548152602001600782015481526020016008820154815260200160098201548152602001600a820160009054906101000a900460ff16600b8111156140ff577f4e487b7100000000000000000000000000000000000000000000000000000000600052602160045260246000fd5b600b811115614137577f4e487b7100000000000000000000000000000000000000000000000000000000600052602160045260246000fd5b8152505090506008600b811115614177577f4e487b7100000000000000000000000000000000000000000000000000000000600052602160045260246000fd5b816101400151600b8111156141b5577f4e487b7100000000000000000000000000000000000000000000000000000000600052602160045260246000fd5b146141bf57600080fd5b82816080015110156141d057600080fd5b806040015173ffffffffffffffffffffffffffffffffffffffff163373ffffffffffffffffffffffffffffffffffffffff161461420c57600080fd5b6040518060a00160405280848152602001838152602001600015158152602001600081526020016001151581525060076000868152602001908152602001600020600082015181600001556020820151816001019080519060200190614273929190614d28565b5060408201518160020160006101000a81548160ff0219169083151502179055506060820151816003015560808201518160040160006101000a81548160ff0219169083151502179055509050506009816101400190600b811115614301577f4e487b7100000000000000000000000000000000000000000000000000000000600052602160045260246000fd5b9081600b81111561433b577f4e487b7100000000000000000000000000000000000000000000000000000000600052602160045260246000fd5b8152505080600260008681526020019081526020016000206000820151816000015560208201518160010160006101000a81548173ffffffffffffffffffffffffffffffffffffffff021916908373ffffffffffffffffffffffffffffffffffffffff16021790555060408201518160020160006101000a81548173ffffffffffffffffffffffffffffffffffffffff021916908373ffffffffffffffffffffffffffffffffffffffff16021790555060608201518160030160006101000a81548173ffffffffffffffffffffffffffffffffffffffff021916908373ffffffffffffffffffffffffffffffffffffffff1602179055506080820151816004015560a0820151816005015560c0820151816006015560e082015181600701556101008201518160080155610120820151816009015561014082015181600a0160006101000a81548160ff0219169083600b8111156144c2577f4e487b7100000000000000000000000000000000000000000000000000000000600052602160045260246000fd5b02179055509050507fd19c095b6663262c0d185cb9af2f6b124da71e0ade064635e320fda8c705a1bc8482610140015160405161450092919061536b565b60405180910390a150505050565b60008111801561452057506001548111155b61452957600080fd5b60006002600083815260200190815260200160002060405180610160016040529081600082015481526020016001820160009054906101000a900473ffffffffffffffffffffffffffffffffffffffff1673ffffffffffffffffffffffffffffffffffffffff1673ffffffffffffffffffffffffffffffffffffffff1681526020016002820160009054906101000a900473ffffffffffffffffffffffffffffffffffffffff1673ffffffffffffffffffffffffffffffffffffffff1673ffffffffffffffffffffffffffffffffffffffff1681526020016003820160009054906101000a900473ffffffffffffffffffffffffffffffffffffffff1673ffffffffffffffffffffffffffffffffffffffff1673ffffffffffffffffffffffffffffffffffffffff168152602001600482015481526020016005820154815260200160068201548152602001600782015481526020016008820154815260200160098201548152602001600a820160009054906101000a900460ff16600b8111156146dd577f4e487b7100000000000000000000000000000000000000000000000000000000600052602160045260246000fd5b600b811115614715577f4e487b7100000000000000000000000000000000000000000000000000000000600052602160045260246000fd5b8152505090503373ffffffffffffffffffffffffffffffffffffffff16816040015173ffffffffffffffffffffffffffffffffffffffff161461475757600080fd5b6001600b811115614791577f4e487b7100000000000000000000000000000000000000000000000000000000600052602160045260246000fd5b816101400151600b8111156147cf577f4e487b7100000000000000000000000000000000000000000000000000000000600052602160045260246000fd5b146147d957600080fd5b6002816101400190600b811115614819577f4e487b7100000000000000000000000000000000000000000000000000000000600052602160045260246000fd5b9081600b811115614853577f4e487b7100000000000000000000000000000000000000000000000000000000600052602160045260246000fd5b8152505080600260008481526020019081526020016000206000820151816000015560208201518160010160006101000a81548173ffffffffffffffffffffffffffffffffffffffff021916908373ffffffffffffffffffffffffffffffffffffffff16021790555060408201518160020160006101000a81548173ffffffffffffffffffffffffffffffffffffffff021916908373ffffffffffffffffffffffffffffffffffffffff16021790555060608201518160030160006101000a81548173ffffffffffffffffffffffffffffffffffffffff021916908373ffffffffffffffffffffffffffffffffffffffff1602179055506080820151816004015560a0820151816005015560c0820151816006015560e082015181600701556101008201518160080155610120820151816009015561014082015181600a0160006101000a81548160ff0219169083600b8111156149da577f4e487b7100000000000000000000000000000000000000000000000000000000600052602160045260246000fd5b02179055509050507fd19c095b6663262c0d185cb9af2f6b124da71e0ade064635e320fda8c705a1bc82826101400151604051614a1892919061536b565b60405180910390a15050565b60066020528060005260406000206000915090508060000160009054906101000a900473ffffffffffffffffffffffffffffffffffffffff16908060010160009054906101000a900473ffffffffffffffffffffffffffffffffffffffff16908060020154908060030154908060040160009054906101000a900460ff16905085565b6009600b811115614ae1577f4e487b7100000000000000000000000000000000000000000000000000000000600052602160045260246000fd5b826101400151600b811115614b1f577f4e487b7100000000000000000000000000000000000000000000000000000000600052602160045260246000fd5b148015614b2d575080604001515b15614be457816020015173ffffffffffffffffffffffffffffffffffffffff166108fc82600001519081150290604051600060405180830381858888f19350505050158015614b80573d6000803e3d6000fd5b50816040015173ffffffffffffffffffffffffffffffffffffffff166108fc82600001518460800151614bb3919061546b565b9081150290604051600060405180830381858888f19350505050158015614bde573d6000803e3d6000fd5b50614d11565b600a600b811115614c1e577f4e487b7100000000000000000000000000000000000000000000000000000000600052602160045260246000fd5b826101400151600b811115614c5c577f4e487b7100000000000000000000000000000000000000000000000000000000600052602160045260246000fd5b1415614d1057816020015173ffffffffffffffffffffffffffffffffffffffff166108fc82606001519081150290604051600060405180830381858888f19350505050158015614cb0573d6000803e3d6000fd5b50816040015173ffffffffffffffffffffffffffffffffffffffff166108fc82606001518460800151614ce3919061546b565b9081150290604051600060405180830381858888f19350505050158015614d0e573d6000803e3d6000fd5b505b5b5050565b600080823b905060008111915050919050565b828054614d34906155a0565b90600052602060002090601f016020900481019282614d565760008555614d9d565b82601f10614d6f57805160ff1916838001178555614d9d565b82800160010185558215614d9d579182015b82811115614d9c578251825591602001919060010190614d81565b5b509050614daa9190614dae565b5090565b5b80821115614dc7576000816000905550600101614daf565b5090565b6000614dde614dd98461541f565b6153ee565b905082815260208101848484011115614df657600080fd5b614e0184828561555e565b509392505050565b600081359050614e18816156fc565b92915050565b600081359050614e2d81615713565b92915050565b600081359050614e428161572a565b92915050565b600081519050614e578161572a565b92915050565b600082601f830112614e6e57600080fd5b8135614e7e848260208601614dcb565b91505092915050565b600081359050614e9681615741565b92915050565b600060208284031215614eae57600080fd5b6000614ebc84828501614e09565b91505092915050565b60008060008060008060c08789031215614ede57600080fd5b6000614eec89828a01614e1e565b9650506020614efd89828a01614e1e565b9550506040614f0e89828a01614e09565b945050606087013567ffffffffffffffff811115614f2b57600080fd5b614f3789828a01614e5d565b9350506080614f4889828a01614e87565b92505060a0614f5989828a01614e87565b9150509295509295509295565b600060208284031215614f7857600080fd5b6000614f8684828501614e48565b91505092915050565b600060208284031215614fa157600080fd5b6000614faf84828501614e87565b91505092915050565b60008060408385031215614fcb57600080fd5b6000614fd985828601614e87565b9250506020614fea85828601614e09565b9150509250929050565b6000806040838503121561500757600080fd5b600061501585828601614e87565b925050602061502685828601614e33565b9150509250929050565b6000806040838503121561504357600080fd5b600061505185828601614e87565b925050602083013567ffffffffffffffff81111561506e57600080fd5b61507a85828601614e5d565b9150509250929050565b6000806040838503121561509757600080fd5b60006150a585828601614e87565b92505060206150b685828601614e87565b9150509250929050565b6000806000606084860312156150d557600080fd5b60006150e386828701614e87565b93505060206150f486828701614e87565b925050604084013567ffffffffffffffff81111561511157600080fd5b61511d86828701614e5d565b9150509250925092565b61513081615516565b82525050565b61513f816154b1565b82525050565b61514e8161549f565b82525050565b61515d816154c3565b82525050565b61516c81615528565b82525050565b61517b816154e2565b82525050565b600061518c8261544f565b615196818561545a565b93506151a681856020860161556d565b6151af816156d7565b840191505092915050565b6151c38161550c565b82525050565b60006020820190506151de6000830184615145565b92915050565b600060a0820190506151f96000830188615145565b6152066020830187615145565b61521360408301866151ba565b61522060608301856151ba565b61522d6080830184615154565b9695505050505050565b600060208201905061524c60008301846151ba565b92915050565b600060608201905061526760008301866151ba565b6152746020830185615127565b6152816040830184615145565b949350505050565b60006101608201905061529f600083018e6151ba565b6152ac602083018d615136565b6152b9604083018c615136565b6152c6606083018b615145565b6152d3608083018a6151ba565b6152e060a0830189615172565b6152ed60c08301886151ba565b6152fa60e08301876151ba565b6153086101008301866151ba565b6153166101208301856151ba565b615324610140830184615163565b9c9b505050505050505050505050565b600060608201905061534960008301866151ba565b6153566020830185615145565b6153636040830184615127565b949350505050565b600060408201905061538060008301856151ba565b61538d6020830184615163565b9392505050565b600060a0820190506153a960008301886151ba565b81810360208301526153bb8187615181565b90506153ca6040830186615154565b6153d760608301856151ba565b6153e46080830184615154565b9695505050505050565b6000604051905081810181811067ffffffffffffffff82111715615415576154146156a8565b5b8060405250919050565b600067ffffffffffffffff82111561543a576154396156a8565b5b601f19601f8301169050602081019050919050565b600081519050919050565b600082825260208201905092915050565b60006154768261550c565b91506154818361550c565b9250828210156154945761549361561b565b5b828203905092915050565b60006154aa826154ec565b9050919050565b60006154bc826154ec565b9050919050565b60008115159050919050565b60008190506154dd826156e8565b919050565b6000819050919050565b600073ffffffffffffffffffffffffffffffffffffffff82169050919050565b6000819050919050565b60006155218261553a565b9050919050565b6000615533826154cf565b9050919050565b60006155458261554c565b9050919050565b6000615557826154ec565b9050919050565b82818337600083830152505050565b60005b8381101561558b578082015181840152602081019050615570565b8381111561559a576000848401525b50505050565b600060028204905060018216806155b857607f821691505b602082108114156155cc576155cb615679565b5b50919050565b60006155dd8261550c565b91507fffffffffffffffffffffffffffffffffffffffffffffffffffffffffffffffff8214156156105761560f61561b565b5b600182019050919050565b7f4e487b7100000000000000000000000000000000000000000000000000000000600052601160045260246000fd5b7f4e487b7100000000000000000000000000000000000000000000000000000000600052602160045260246000fd5b7f4e487b7100000000000000000000000000000000000000000000000000000000600052602260045260246000fd5b7f4e487b7100000000000000000000000000000000000000000000000000000000600052604160045260246000fd5b6000601f19601f8301169050919050565b600c81106156f9576156f861564a565b5b50565b6157058161549f565b811461571057600080fd5b50565b61571c816154b1565b811461572757600080fd5b50565b615733816154c3565b811461573e57600080fd5b50565b61574a8161550c565b811461575557600080fd5b5056fea2646970667358221220de56f5178ad23b32c9e17c231ab69de8af1de8b10811dd3b064dfc934fab3f3e64736f6c63430008000033",
  "immutableReferences": {},
  "source": "pragma solidity ^0.8.0;\n\nimport \"./DeliveryContract.sol\";\nimport \"@openzeppelin/contracts/utils/Address.sol\";\n\ncontract OrderLogicContract{\n    // Authorities\n    address public authority;\n\n    // key:value store\n    uint  public orderCount = 0;\n    mapping(uint => Order) public orders;\n\n    mapping(uint => ConfirmationMechanism) public storeShipnent;\n    mapping(uint => ConfirmationMechanism) public customerRecievement;\n    mapping(uint => ConfirmationMechanism) public customerShipment;\n    mapping(uint => ConfirmationMechanism) public storeRecievement;\n    mapping(uint => Settlement) public settlements;\n\n    mapping(address => uint) public adressOrder;\n\n    // STRUCTS\n\n    struct Order {\n        // identificator of the order\n        uint id;\n        // roles\n        address payable customer;\n        address payable store;\n        address deliverer;\n        //\n        uint costInTotal;\n        int256 acceptedDate;\n\n        //\n        uint productListHash;\n        uint returnedProductListHash;\n        uint returnedListHash;\n        uint customerInformationHash;\n\n\n        // State\n        OrderState state;\n    }\n\n    enum OrderState{\n        CREATED,                        // 0\n        PAID,                           // 1\n        ACCEPTED,                       // 2\n        SHIPPED,                        // 3\n        CANCELLED,                      // 4\n        DELIVERED,                      // 5\n        COMPLETED,                      // 6\n        SENTBACK,                       // 7\n        RETURNED,                       // 8\n        PROPOSALFORSETTLEMENT,          // 9\n        FROZEN,                         // 10\n        REFUNDED                        // 11\n    }\n\n    struct ConfirmationMechanism{\n        address condignor;\n        address recipient;\n        uint256  consignorConfimraiton; // timestamp\n        uint256  recipientConfimraiton; // timestamp\n        bool exists;  // workaround\n    }\n\n    struct Settlement{\n        uint refundedAmount;\n        string reason;\n        bool accepted;\n        uint decicedRefundAmount;\n        bool exists;  // workaround\n    }\n\n    constructor() public {\n        authority = msg.sender;\n    }\n    // EVENTS\n    event OrderStateChanged(\n        uint orderId,\n        OrderState state\n    );\n\n\n    // FUNCTIONS\n    function createOrder(\n        address payable _customer,\n        address payable _store,\n        address _deliverer,\n        string memory _productsList,\n        uint _productCount,\n        uint _costInTotal\n    ) public returns (uint orderId) {\n\n        // add Order\n        orderCount++;\n        //ConfirmationMechanism storage empty = ConfirmationMechanism(address(0), address(0), 0,0);\n\n        orders[orderCount] = Order( orderCount,\n            _customer,\n            _store,\n            _deliverer,\n            _costInTotal,\n            0, 0, 0, 0 , 0,\n            OrderState.CREATED);\n        emit OrderStateChanged( orderCount, OrderState.CREATED );\n    }\n\n    function payOrder( uint _orderId) public payable {\n        // Make sure the id is valid\n        require(_orderId > 0 && _orderId <= orderCount);\n\n        // Fetch the post\n        Order memory _order = orders[_orderId];\n        require(_order.state == OrderState.CREATED);\n        require( _order.costInTotal == msg.value ); // if is enought to pay\n        // update state\n        _order.state = OrderState.PAID;\n        // update order\n        orders[_orderId] = _order;\n        emit OrderStateChanged( _orderId, _order.state );\n    }\n\n    function acceptOrder(uint _orderId) public {\n        // Make sure the id is valid\n        require(_orderId > 0 && _orderId <= orderCount);\n        // Fetch the post\n        Order memory _order = orders[_orderId];\n        // Check sender role in order\n        require(_order.store == msg.sender);\n        // Check state of the order\n        require(_order.state == OrderState.PAID);\n        // update state\n        _order.state = OrderState.ACCEPTED;\n        // update order\n        orders[_orderId] = _order;\n        // emit event\n        emit OrderStateChanged( _orderId, _order.state );\n    }\n\n\n\n\n    function returnProducts( uint _orderId,\n        string memory _productsList ) public {\n        // Make sure the id is valid\n        require(_orderId > 0 && _orderId <= orderCount);\n        // Fetch the order\n        Order memory _order = orders[_orderId];\n        require(_order.state == OrderState.DELIVERED);\n        _order.returnedListHash = 1;\n        orders[_orderId] = _order;\n        emit OrderStateChanged( _orderId, _order.state );\n    }\n\n    function makeProposal( uint _orderId, uint _amount, string memory _reason ) public {\n        // Make sure the id is valid\n        require(_orderId > 0 && _orderId <= orderCount);\n        // Fetch the order\n        Order memory _order = orders[_orderId];\n        require(_order.state == OrderState.RETURNED );\n        require(_order.costInTotal >= _amount );\n        require( msg.sender == _order.store );\n\n        settlements[ _orderId ] = Settlement( _amount, _reason, false, 0, true );\n\n        _order.state = OrderState.PROPOSALFORSETTLEMENT;\n        orders[_orderId] = _order;\n        emit OrderStateChanged( _orderId, _order.state );\n    }\n\n    function makeRefund( uint _orderId ) public {\n        // Make sure the id is valid\n        require(_orderId > 0 && _orderId <= orderCount);\n        // Fetch the order\n        Order memory _order = orders[_orderId];\n        require(_order.state == OrderState.RETURNED );\n        require( msg.sender == _order.store );\n\n        // Return payment to cutomer account\n        //address payable adr= address(_order.customer);\n        _order.customer.transfer( _order.costInTotal );\n\n        _order.state = OrderState.REFUNDED;\n        orders[_orderId] = _order;\n        emit OrderStateChanged( _orderId, _order.state );\n    }\n\n    function payBasedProposal( Order memory _order, Settlement memory _settlement ) private {\n        if ( ( _order.state == OrderState.PROPOSALFORSETTLEMENT ) &&\n            _settlement.accepted){\n            _order.customer.transfer( _settlement.refundedAmount );\n            _order.store.transfer(_order.costInTotal - _settlement.refundedAmount );\n        }else if( ( _order.state == OrderState.FROZEN ) ) {\n            _order.customer.transfer( _settlement.decicedRefundAmount );\n            _order.store.transfer( _order.costInTotal - _settlement.decicedRefundAmount );\n        }\n    }\n\n    function proposalAcceptence( uint _orderId, bool _accept ) public {\n        // Make sure the id is valid\n        require(_orderId > 0 && _orderId <= orderCount);\n        // Fetch the order\n        Order memory _order = orders[_orderId];\n        require(_order.state == OrderState.PROPOSALFORSETTLEMENT );\n        require( msg.sender == _order.customer );\n\n        if ( _accept ){\n            Settlement memory _settlement = settlements[_orderId];\n            _settlement.accepted = true;\n            settlements[_orderId] = _settlement;\n\n            payBasedProposal( _order, _settlement );\n            _order.state = OrderState.REFUNDED;\n        }else{\n            _order.state = OrderState.FROZEN;\n        }\n        orders[_orderId] = _order;\n        emit OrderStateChanged( _orderId, _order.state );\n    }\n\n    function unfroze( uint _orderId, uint _amount ) public {\n        // Make sure the id is valid\n        require(_orderId > 0 && _orderId <= orderCount);\n        // Fetch the order\n        Order memory _order = orders[_orderId];\n        require(_order.state == OrderState.FROZEN );\n        require( msg.sender == authority ); // block arbitration\n        require(_order.costInTotal >= _amount );\n\n        Settlement memory _settlement = settlements[_orderId];\n        _settlement.decicedRefundAmount = _amount;\n        settlements[_orderId] = _settlement;\n        payBasedProposal( _order , _settlement );\n\n        _order.state = OrderState.REFUNDED;\n        orders[_orderId] = _order;\n        emit OrderStateChanged( _orderId, _order.state );\n    }\n\n    function cancelOrder( uint _orderId ) public {\n        // Make sure the id is valid\n        require(_orderId > 0 && _orderId <= orderCount);\n        // Fetch the post\n        Order memory _order = orders[_orderId];\n\n        // Role check\n        require(_order.store == msg.sender ||\n            _order.customer == msg.sender );\n\n        // Order state check\n        require(_order.state == OrderState.CREATED  ||\n        _order.state == OrderState.PAID     ||\n        _order.state == OrderState.ACCEPTED ||\n            _order.state == OrderState.SHIPPED);\n\n        if ( _order.state != OrderState.CREATED ){ // is payed\n            // send back payment\n            _order.customer.transfer( _order.costInTotal );\n        }\n\n        // update state\n        _order.state = OrderState.CANCELLED;\n        // update order\n        orders[_orderId] = _order;\n        emit OrderStateChanged( _orderId, _order.state );\n    }\n\n    function confirmationMechanism(uint _orderId, address _deliveryContractAdress ) public {\n        // Check if provided address is smart contract\n        require( Address.isContract(_deliveryContractAdress) );\n        // Make sure the id is valid\n        require(_orderId > 0 && _orderId <= orderCount);\n        // Fetch the order\n        Order memory _order = orders[_orderId];\n        // Creating communication instance from adress\n        DeliveryContract del = DeliveryContract(_deliveryContractAdress);\n\n        if ( _order.state == OrderState.ACCEPTED ){\n            // Required function of delivery contract for confirmation of\n            // delivery act\n            if ( del.isConfirmed(_orderId, _order.store, _order.deliverer ) ){\n                _order.state = OrderState.SHIPPED;\n            }\n        }else if ( _order.state == OrderState.SHIPPED ){\n            if ( del.isConfirmed( _orderId, _order.deliverer, _order.customer ) ){\n                _order.state = OrderState.DELIVERED;\n            }\n        }else if ( _order.state == OrderState.DELIVERED ){\n            if ( del.isConfirmed( _orderId, _order.customer, _order.deliverer ) ){\n                _order.state = OrderState.SENTBACK;\n            }\n        }else if ( _order.state == OrderState.SENTBACK ){\n            if ( del.isConfirmed( _orderId, _order.deliverer, _order.store ) ){\n                _order.state = OrderState.RETURNED;\n            }\n        }\n        orders[_orderId] = _order;\n        emit OrderStateChanged( _orderId, _order.state );\n    }\n\n\n    function step( uint _orderId ) public {\n        // Make sure the id is valid\n        require(_orderId > 0 && _orderId <= orderCount);\n        // Fetch the order\n        Order memory _order = orders[_orderId];\n        if ( _order.state == OrderState.DELIVERED ){\n            // Check date of accepted\n            _order.store.transfer( _order.costInTotal );\n            _order.state = OrderState.COMPLETED;\n            orders[_orderId] = _order;\n            emit OrderStateChanged( _orderId, _order.state );\n        }\n    }\n\n}\n",
  "sourcePath": "/Users/simonurbanek/NoCloud/blockChain/orderApp/src/contracts/OrderLogicContract.sol",
  "compiler": {
    "name": "solc",
    "version": "0.8.0+commit.c7dfd78e.Emscripten.clang"
  },
  "schemaVersion": "3.4.0",
  "updatedAt": "2021-04-24T09:45:24.360Z",
  "networkType": "ethereum",
  "devdoc": {
    "kind": "dev",
    "methods": {},
    "version": 1
  },
  "userdoc": {
    "kind": "user",
    "methods": {},
    "version": 1
  }
}