{
  "contractName": "OrderInform",
  "abi": [
    {
      "inputs": [],
      "stateMutability": "nonpayable",
      "type": "constructor"
    },
    {
      "anonymous": false,
      "inputs": [
        {
          "indexed": false,
          "internalType": "uint256",
          "name": "orderId",
          "type": "uint256"
        },
        {
          "indexed": false,
          "internalType": "enum OrderInform.OrderState",
          "name": "state",
          "type": "uint8"
        }
      ],
      "name": "ConfirmaionStateChanged",
      "type": "event"
    },
    {
      "inputs": [
        {
          "internalType": "address",
          "name": "",
          "type": "address"
        }
      ],
      "name": "adressOrder",
      "outputs": [
        {
          "internalType": "uint256",
          "name": "",
          "type": "uint256"
        }
      ],
      "stateMutability": "view",
      "type": "function"
    },
    {
      "inputs": [],
      "name": "authority",
      "outputs": [
        {
          "internalType": "address",
          "name": "",
          "type": "address"
        }
      ],
      "stateMutability": "view",
      "type": "function"
    },
    {
      "inputs": [
        {
          "internalType": "uint256",
          "name": "",
          "type": "uint256"
        }
      ],
      "name": "customerRecievement",
      "outputs": [
        {
          "internalType": "address",
          "name": "condignor",
          "type": "address"
        },
        {
          "internalType": "address",
          "name": "recipient",
          "type": "address"
        },
        {
          "internalType": "uint256",
          "name": "consignorConfimraiton",
          "type": "uint256"
        },
        {
          "internalType": "uint256",
          "name": "recipientConfimraiton",
          "type": "uint256"
        },
        {
          "internalType": "bool",
          "name": "exists",
          "type": "bool"
        }
      ],
      "stateMutability": "view",
      "type": "function"
    },
    {
      "inputs": [
        {
          "internalType": "uint256",
          "name": "",
          "type": "uint256"
        }
      ],
      "name": "customerShipment",
      "outputs": [
        {
          "internalType": "address",
          "name": "condignor",
          "type": "address"
        },
        {
          "internalType": "address",
          "name": "recipient",
          "type": "address"
        },
        {
          "internalType": "uint256",
          "name": "consignorConfimraiton",
          "type": "uint256"
        },
        {
          "internalType": "uint256",
          "name": "recipientConfimraiton",
          "type": "uint256"
        },
        {
          "internalType": "bool",
          "name": "exists",
          "type": "bool"
        }
      ],
      "stateMutability": "view",
      "type": "function"
    },
    {
      "inputs": [],
      "name": "orderCount",
      "outputs": [
        {
          "internalType": "uint256",
          "name": "",
          "type": "uint256"
        }
      ],
      "stateMutability": "view",
      "type": "function"
    },
    {
      "inputs": [
        {
          "internalType": "uint256",
          "name": "",
          "type": "uint256"
        }
      ],
      "name": "orders",
      "outputs": [
        {
          "internalType": "uint256",
          "name": "id",
          "type": "uint256"
        },
        {
          "internalType": "address payable",
          "name": "customer",
          "type": "address"
        },
        {
          "internalType": "address payable",
          "name": "store",
          "type": "address"
        },
        {
          "internalType": "address",
          "name": "deliverer",
          "type": "address"
        },
        {
          "internalType": "uint256",
          "name": "costInTotal",
          "type": "uint256"
        },
        {
          "internalType": "int256",
          "name": "acceptedDate",
          "type": "int256"
        },
        {
          "internalType": "uint256",
          "name": "productListHash",
          "type": "uint256"
        },
        {
          "internalType": "uint256",
          "name": "returnedProductListHash",
          "type": "uint256"
        },
        {
          "internalType": "uint256",
          "name": "returnedListHash",
          "type": "uint256"
        },
        {
          "internalType": "uint256",
          "name": "customerInformationHash",
          "type": "uint256"
        },
        {
          "internalType": "enum OrderInform.OrderState",
          "name": "state",
          "type": "uint8"
        }
      ],
      "stateMutability": "view",
      "type": "function"
    },
    {
      "inputs": [
        {
          "internalType": "uint256",
          "name": "",
          "type": "uint256"
        }
      ],
      "name": "settlements",
      "outputs": [
        {
          "internalType": "uint256",
          "name": "refundedAmount",
          "type": "uint256"
        },
        {
          "internalType": "string",
          "name": "reason",
          "type": "string"
        },
        {
          "internalType": "bool",
          "name": "accepted",
          "type": "bool"
        },
        {
          "internalType": "uint256",
          "name": "decicedRefundAmount",
          "type": "uint256"
        },
        {
          "internalType": "bool",
          "name": "exists",
          "type": "bool"
        }
      ],
      "stateMutability": "view",
      "type": "function"
    },
    {
      "inputs": [
        {
          "internalType": "uint256",
          "name": "",
          "type": "uint256"
        }
      ],
      "name": "storeRecievement",
      "outputs": [
        {
          "internalType": "address",
          "name": "condignor",
          "type": "address"
        },
        {
          "internalType": "address",
          "name": "recipient",
          "type": "address"
        },
        {
          "internalType": "uint256",
          "name": "consignorConfimraiton",
          "type": "uint256"
        },
        {
          "internalType": "uint256",
          "name": "recipientConfimraiton",
          "type": "uint256"
        },
        {
          "internalType": "bool",
          "name": "exists",
          "type": "bool"
        }
      ],
      "stateMutability": "view",
      "type": "function"
    },
    {
      "inputs": [
        {
          "internalType": "uint256",
          "name": "",
          "type": "uint256"
        }
      ],
      "name": "storeShipnent",
      "outputs": [
        {
          "internalType": "address",
          "name": "condignor",
          "type": "address"
        },
        {
          "internalType": "address",
          "name": "recipient",
          "type": "address"
        },
        {
          "internalType": "uint256",
          "name": "consignorConfimraiton",
          "type": "uint256"
        },
        {
          "internalType": "uint256",
          "name": "recipientConfimraiton",
          "type": "uint256"
        },
        {
          "internalType": "bool",
          "name": "exists",
          "type": "bool"
        }
      ],
      "stateMutability": "view",
      "type": "function"
    },
    {
      "inputs": [
        {
          "internalType": "uint256",
          "name": "_orderId",
          "type": "uint256"
        }
      ],
      "name": "confirm",
      "outputs": [],
      "stateMutability": "nonpayable",
      "type": "function"
    }
  ],
  "bytecode": "0x6080604052600060015534801561001557600080fd5b50336000806101000a81548173ffffffffffffffffffffffffffffffffffffffff021916908373ffffffffffffffffffffffffffffffffffffffff160217905550610cf5806100656000396000f3fe608060405234801561001057600080fd5b506004361061009e5760003560e01c806366ead2051161006657806366ead20514610191578063a85c38ef146101c1578063ba0179b5146101fb578063bf7e214f14610217578063f0ea01fe146102355761009e565b806308df7dc8146100a3578063173a572a146100d75780631bdabd7e1461010b578063237797aa1461013f5780632453ffa814610173575b600080fd5b6100bd60048036038101906100b891906108ba565b610269565b6040516100ce959493929190610aaa565b60405180910390f35b6100f160048036038101906100ec91906108ba565b610341565b604051610102959493929190610991565b60405180910390f35b610125600480360381019061012091906108ba565b6103c4565b604051610136959493929190610991565b60405180910390f35b610159600480360381019061015491906108ba565b610447565b60405161016a959493929190610991565b60405180910390f35b61017b6104ca565b60405161018891906109e4565b60405180910390f35b6101ab60048036038101906101a69190610891565b6104d0565b6040516101b891906109e4565b60405180910390f35b6101db60048036038101906101d691906108ba565b6104e8565b6040516101f29b9a999897969594939291906109ff565b60405180910390f35b610215600480360381019061021091906108ba565b6105af565b005b61021f6107c0565b60405161022c9190610976565b60405180910390f35b61024f600480360381019061024a91906108ba565b6107e4565b604051610260959493929190610991565b60405180910390f35b600760205280600052604060002060009150905080600001549080600101805461029290610bdc565b80601f01602080910402602001604051908101604052809291908181526020018280546102be90610bdc565b801561030b5780601f106102e05761010080835404028352916020019161030b565b820191906000526020600020905b8154815290600101906020018083116102ee57829003601f168201915b5050505050908060020160009054906101000a900460ff16908060030154908060040160009054906101000a900460ff16905085565b60046020528060005260406000206000915090508060000160009054906101000a900473ffffffffffffffffffffffffffffffffffffffff16908060010160009054906101000a900473ffffffffffffffffffffffffffffffffffffffff16908060020154908060030154908060040160009054906101000a900460ff16905085565b60036020528060005260406000206000915090508060000160009054906101000a900473ffffffffffffffffffffffffffffffffffffffff16908060010160009054906101000a900473ffffffffffffffffffffffffffffffffffffffff16908060020154908060030154908060040160009054906101000a900460ff16905085565b60056020528060005260406000206000915090508060000160009054906101000a900473ffffffffffffffffffffffffffffffffffffffff16908060010160009054906101000a900473ffffffffffffffffffffffffffffffffffffffff16908060020154908060030154908060040160009054906101000a900460ff16905085565b60015481565b60086020528060005260406000206000915090505481565b60026020528060005260406000206000915090508060000154908060010160009054906101000a900473ffffffffffffffffffffffffffffffffffffffff16908060020160009054906101000a900473ffffffffffffffffffffffffffffffffffffffff16908060030160009054906101000a900473ffffffffffffffffffffffffffffffffffffffff169080600401549080600501549080600601549080600701549080600801549080600901549080600a0160009054906101000a900460ff1690508b565b6000811180156105c157506001548111155b6105ca57600080fd5b60006002600083815260200190815260200160002060405180610160016040529081600082015481526020016001820160009054906101000a900473ffffffffffffffffffffffffffffffffffffffff1673ffffffffffffffffffffffffffffffffffffffff1673ffffffffffffffffffffffffffffffffffffffff1681526020016002820160009054906101000a900473ffffffffffffffffffffffffffffffffffffffff1673ffffffffffffffffffffffffffffffffffffffff1673ffffffffffffffffffffffffffffffffffffffff1681526020016003820160009054906101000a900473ffffffffffffffffffffffffffffffffffffffff1673ffffffffffffffffffffffffffffffffffffffff1673ffffffffffffffffffffffffffffffffffffffff168152602001600482015481526020016005820154815260200160068201548152602001600782015481526020016008820154815260200160098201548152602001600a820160009054906101000a900460ff16600b81111561077e577f4e487b7100000000000000000000000000000000000000000000000000000000600052602160045260246000fd5b600b8111156107b6577f4e487b7100000000000000000000000000000000000000000000000000000000600052602160045260246000fd5b8152505090505050565b60008054906101000a900473ffffffffffffffffffffffffffffffffffffffff1681565b60066020528060005260406000206000915090508060000160009054906101000a900473ffffffffffffffffffffffffffffffffffffffff16908060010160009054906101000a900473ffffffffffffffffffffffffffffffffffffffff16908060020154908060030154908060040160009054906101000a900460ff16905085565b60008135905061087681610c91565b92915050565b60008135905061088b81610ca8565b92915050565b6000602082840312156108a357600080fd5b60006108b184828501610867565b91505092915050565b6000602082840312156108cc57600080fd5b60006108da8482850161087c565b91505092915050565b6108ec81610b32565b82525050565b6108fb81610b20565b82525050565b61090a81610b44565b82525050565b61091981610b97565b82525050565b61092881610b63565b82525050565b600061093982610b04565b6109438185610b0f565b9350610953818560208601610ba9565b61095c81610c6c565b840191505092915050565b61097081610b8d565b82525050565b600060208201905061098b60008301846108f2565b92915050565b600060a0820190506109a660008301886108f2565b6109b360208301876108f2565b6109c06040830186610967565b6109cd6060830185610967565b6109da6080830184610901565b9695505050505050565b60006020820190506109f96000830184610967565b92915050565b600061016082019050610a15600083018e610967565b610a22602083018d6108e3565b610a2f604083018c6108e3565b610a3c606083018b6108f2565b610a49608083018a610967565b610a5660a083018961091f565b610a6360c0830188610967565b610a7060e0830187610967565b610a7e610100830186610967565b610a8c610120830185610967565b610a9a610140830184610910565b9c9b505050505050505050505050565b600060a082019050610abf6000830188610967565b8181036020830152610ad1818761092e565b9050610ae06040830186610901565b610aed6060830185610967565b610afa6080830184610901565b9695505050505050565b600081519050919050565b600082825260208201905092915050565b6000610b2b82610b6d565b9050919050565b6000610b3d82610b6d565b9050919050565b60008115159050919050565b6000819050610b5e82610c7d565b919050565b6000819050919050565b600073ffffffffffffffffffffffffffffffffffffffff82169050919050565b6000819050919050565b6000610ba282610b50565b9050919050565b60005b83811015610bc7578082015181840152602081019050610bac565b83811115610bd6576000848401525b50505050565b60006002820490506001821680610bf457607f821691505b60208210811415610c0857610c07610c3d565b5b50919050565b7f4e487b7100000000000000000000000000000000000000000000000000000000600052602160045260246000fd5b7f4e487b7100000000000000000000000000000000000000000000000000000000600052602260045260246000fd5b6000601f19601f8301169050919050565b600c8110610c8e57610c8d610c0e565b5b50565b610c9a81610b20565b8114610ca557600080fd5b50565b610cb181610b8d565b8114610cbc57600080fd5b5056fea2646970667358221220b1e15bbb4f46d7c859bd2773811f58432923dc0de69eaaacfe3e693d05bee58864736f6c63430008000033",
  "immutableReferences": {},
  "source": "pragma solidity ^0.8.0;\n\ncontract OrderInform {\n    // Authorities\n    address public authority;\n\n    // key:value store\n    uint  public orderCount = 0;\n    mapping(uint => Order) public orders;\n\n    mapping(uint => ConfirmationMechanism) public storeShipnent;\n    mapping(uint => ConfirmationMechanism) public customerRecievement;\n    mapping(uint => ConfirmationMechanism) public customerShipment;\n    mapping(uint => ConfirmationMechanism) public storeRecievement;\n    mapping(uint => Settlement) public settlements;\n\n    mapping(address => uint) public adressOrder;\n\n    // STRUCTS\n\n    struct Order {\n        // identificator of the order\n        uint id;\n        \n        // roles\n        address payable customer;\n        address payable store;\n        address deliverer;\n        //\n        uint costInTotal;\n        int256 acceptedDate;\n\n        //\n        uint productListHash;\n        uint returnedProductListHash;\n        uint returnedListHash;\n        uint customerInformationHash;\n\n\n        // State\n        OrderState state;\n    }\n\n    enum OrderState{\n        CREATED,\n        PAID,\n        ACCEPTED,\n        SHIPPED,\n        CANCELLED,\n        DELIVERED,\n        COMPLETED,\n        SENTBACK,\n        RETURNED,\n        PROPOSALFORSETTLEMENT,\n        FROZEN,\n        REFUNDED\n    }\n\n    struct ConfirmationMechanism{\n        address condignor;\n        address recipient;\n        uint256  consignorConfimraiton; // timestamp\n        uint256  recipientConfimraiton; // timestamp\n        bool exists;  // workaround\n    }\n\n    struct Settlement{\n        uint refundedAmount;\n        string reason;\n        bool accepted;\n        uint decicedRefundAmount;\n        bool exists;  // workaround\n    }\n\n    constructor() public {\n        authority = msg.sender;\n    }\n    // EVENTS\n    event ConfirmaionStateChanged(\n        uint orderId,\n        OrderState state\n    );\n\n    function confirm(uint  _orderId ) public{\n        // Make sure the id is valid\n        require(_orderId > 0 && _orderId <= orderCount);\n        // Fetch the order\n        Order memory _order = orders[_orderId];\n    }\n\n//    function confirmShipment(uint _orderId) public {\n//        // Make sure the id is valid\n//        require(_orderId > 0 && _orderId <= orderCount);\n//        // Fetch the order\n//        Order memory _order = orders[_orderId];\n//\n//        require(\n//            ( _order.state == OrderState.ACCEPTED && msg.sender == _order.store )       ||\n//            ( _order.state == OrderState.SHIPPED && msg.sender == _order.deliverer)     ||\n//            ( _order.state == OrderState.COMPLETED && msg.sender == _order.customer )   ||\n//            ( _order.state == OrderState.SENTBACK && msg.sender == _order.deliverer ));\n//\n//        // Test existence og confirmation mechanism\n//        if ( _order.state == OrderState.ACCEPTED && msg.sender == _order.store ){\n//            if (storeShipnent[_orderId].exists){ // not created\n//                storeShipnent[_orderId] = ConfirmationMechanism( msg.sender, address(0), block.number, 0 , true);\n//            }else{\n//                ConfirmationMechanism storage conf = storeShipnent[_orderId];\n//                conf.condignor = msg.sender;\n//                conf.consignorConfimraiton = block.number;\n//                storeShipnent[_orderId] = conf;\n//                _order.state = OrderState.SHIPPED;\n//                orders[_orderId] = _order;\n//            }\n//        }else if ( _order.state == OrderState.SHIPPED && msg.sender == _order.deliverer){\n//            if (customerRecievement[_orderId].exists ){ // not created\n//                customerRecievement[_orderId] = ConfirmationMechanism( msg.sender, address(0), block.number, 0 , true);\n//            }else{\n//                ConfirmationMechanism storage conf = customerRecievement[_orderId];\n//                conf.condignor = msg.sender;\n//                conf.consignorConfimraiton = block.number;\n//                customerRecievement[_orderId] = conf;\n//                _order.state = OrderState.DELIVERED;\n//                orders[_orderId] = _order;\n//            }\n//        }else if ( _order.state == OrderState.COMPLETED && msg.sender == _order.customer ){\n//            if (customerShipment[_orderId].exists  ){ // not created\n//                customerShipment[_orderId] = ConfirmationMechanism( msg.sender, address(0), block.number, 0 , true);\n//            }else{\n//                ConfirmationMechanism storage conf = customerShipment[_orderId];\n//                conf.condignor = msg.sender;\n//                conf.consignorConfimraiton = block.number;\n//                customerShipment[_orderId] = conf;\n//                _order.state = OrderState.SENTBACK;\n//                orders[_orderId] = _order;\n//            }\n//        }else if ( _order.state == OrderState.SENTBACK && msg.sender == _order.deliverer ){\n//            if (storeRecievement[_orderId].exists ){ // not created\n//                storeRecievement[_orderId] = ConfirmationMechanism( msg.sender, address(0), block.number, 0, true );\n//            }else{\n//                ConfirmationMechanism storage conf = storeRecievement[_orderId];\n//                conf.condignor = msg.sender;\n//                conf.consignorConfimraiton = block.number;\n//                storeRecievement[_orderId] = conf;\n//                _order.state = OrderState.RETURNED;\n//                orders[_orderId] = _order;\n//            }\n//        }\n//\n//    }\n//    //\n//    function confirmtRecievment( uint _orderId ) public {\n//\n//        // Make sure the id is valid\n//        require(_orderId > 0 && _orderId <= orderCount);\n//        // Fetch the order\n//        Order memory _order = orders[_orderId];\n//\n//        require(\n//            ( _order.state == OrderState.ACCEPTED && msg.sender == _order.deliverer )       ||\n//            ( _order.state == OrderState.SHIPPED && msg.sender == _order.customer)     ||\n//            ( _order.state == OrderState.COMPLETED && msg.sender == _order.deliverer )   ||\n//            ( _order.state == OrderState.SENTBACK && msg.sender == _order.store ));\n//\n//        // Test existence og confirmation mechanism\n//        if ( _order.state == OrderState.ACCEPTED && msg.sender == _order.deliverer ){\n//            if (storeShipnent[_orderId].exists){ // not created\n//                storeShipnent[_orderId] = ConfirmationMechanism( address(0), msg.sender, 0, block.number, true);\n//            }else{\n//                ConfirmationMechanism storage conf = storeShipnent[_orderId];\n//                conf.recipient = msg.sender;\n//                conf.recipientConfimraiton = block.number;\n//                storeShipnent[_orderId] = conf;\n//                _order.state = OrderState.SHIPPED;\n//                orders[_orderId] = _order;\n//            }\n//        }else if ( _order.state == OrderState.SHIPPED && msg.sender == _order.customer){\n//            if (customerRecievement[_orderId].exists ){ // not created\n//                customerRecievement[_orderId] = ConfirmationMechanism( address(0), msg.sender, 0, block.number, true);\n//            }else{\n//                ConfirmationMechanism storage conf = customerRecievement[_orderId];\n//                conf.recipient = msg.sender;\n//                conf.recipientConfimraiton = block.number;\n//                customerRecievement[_orderId] = conf;\n//                _order.state = OrderState.DELIVERED;\n//                orders[_orderId] = _order;\n//            }\n//        }else if ( _order.state == OrderState.COMPLETED && msg.sender == _order.deliverer ){\n//            if (customerShipment[_orderId].exists  ){ // not created\n//                customerShipment[_orderId] = ConfirmationMechanism( address(0), msg.sender, 0, block.number, true);\n//            }else{\n//                ConfirmationMechanism storage conf = customerShipment[_orderId];\n//                conf.recipient = msg.sender;\n//                conf.recipientConfimraiton = block.number;\n//                customerShipment[_orderId] = conf;\n//                _order.state = OrderState.SENTBACK;\n//                orders[_orderId] = _order;\n//            }\n//        }else if ( _order.state == OrderState.SENTBACK && msg.sender == _order.store ){\n//            if (storeRecievement[_orderId].exists ){ // not created\n//                storeRecievement[_orderId] = ConfirmationMechanism( address(0), msg.sender, 0, block.number, true);\n//            }else{\n//                ConfirmationMechanism storage conf = storeRecievement[_orderId];\n//                conf.recipient = msg.sender;\n//                conf.recipientConfimraiton = block.number;\n//                storeRecievement[_orderId] = conf;\n//                _order.state = OrderState.RETURNED;\n//                orders[_orderId] = _order;\n//            }\n//        }\n//\n//    }\n\n}\n",
  "sourcePath": "/Users/simonurbanek/NoCloud/blockChain/orderApp/src/contracts/OrderInform.sol",
  "compiler": {
    "name": "solc",
    "version": "0.8.0+commit.c7dfd78e.Emscripten.clang"
  },
  "schemaVersion": "3.4.0",
  "updatedAt": "2021-04-24T11:43:09.934Z",
  "devdoc": {
    "kind": "dev",
    "methods": {},
    "version": 1
  },
  "userdoc": {
    "kind": "user",
    "methods": {},
    "version": 1
  }
}